:100000000C9409020C9441020C9441020C9441029C
:100010000C9441020C9441020C9441020C94410254
:100020000C9441020C9441020C9464160C9420161A
:100030000C9461170C9441020C9441020C944102FF
:100040000C9441020C9441020C9441020C94410224
:100050000C9441020C943D170C9441020C94410203
:100060000C9441020C9441020C9441020C94410204
:100070000C9441020C9441020C9441020C944102F4
:100080000C9441020C9441020C9441020C944102E4
:100090000C9441020C9441020C9441020C944102D4
:1000A0000C9441020C9441020C9441021E001F006A
:1000B0002000210022002300240025002900140034
:1000C0001A000800150017001C0018002B0004007F
:1000D0001600070009000A000B000D00E1001D00DA
:1000E0001B0006001900050011001000E000E300ED
:1000F000E200000000002C00000000005800630037
:1001000062004F0050002252000000005B005A00C5
:100110005900E50038003700360000005E005D0041
:100120005C00280033000F000E000000610060003A
:100130005F002A004C00130012000C00570056000C
:100140005500540061522700260000001E001F00C9
:100150002000210022002300240025002900140093
:100160001A000800150017001C0018002B000400DE
:100170001600070009000A000B000D00E1001D0039
:100180001B0006001900050011001000E000E3004C
:10019000E200000000002C00000000004F005100B1
:1001A0005000E400E7002252000000002702520045
:1001B0002602E500380037003600000031023E001C
:1001C0003400280033000F000E0000003100300022
:1001D0002F002A004C00130012000C002E002D00EE
:1001E00035003502615227002600000001000100A1
:1001F00001000100010001000100010001000100F7
:1002000001000100010001000100010039000100AE
:1002100001000100010001000100010001000100D6
:1002200001000100010001000100010001000100C6
:1002300001000000000001000000000001000100BA
:100240000100510052000100000000004E004D006E
:10025000A8000100010001000100000001003E00B3
:10026000AA00010001000100010000004B004A004B
:10027000A9000100010001000100010001000100CE
:10028000B200460001000100010000000501090262
:10029000A10185020901A10005091901290815001C
:1002A0002501950875018102050109300931158183
:1002B000257F95027508810609381581257F9501EE
:1002C00075088106050C0A38021581257F95017590
:1002D000088106C0C005010980A101850319012A12
:1002E000B700150126B700950175108100C0050CF7
:1002F0000901A101850419012AA002150126A00205
:10030000950175108100C005010906A1018506054A
:100310000719E029E71500250195087501810205F7
:1003200007190029EF1500250195F07501810205D7
:10033000081901290595057501910295017503912B
:1003400001C005010906A101050719E029E715000B
:100350002501950875018102950175088101050740
:10036000190029FF150026FF009506750881000574
:1003700008190129051500250195057501910295BA
:100380000175039101C009023B00020100A0FA09B6
:1003900004000001030101000921110100012244B0
:1003A00000070581030800010904010001030000A2
:1003B0000009211101000122B60007058203200077
:1003C00001120100020000000843555753010001CB
:1003D00002000114035300680069006700610077A0
:1003E0000069007200650000002203540072006181
:1003F0000073006800200049006E006400750073FF
:1004000000740072006900650073000000040309B5
:10041000040011241FBECFEFDAE0DEBFCDBF04B66B
:1004200003FE18C080917A0290917B02A0917C0219
:10043000B0917D028730904BA740B04B59F4109299
:100440007A0210927B0210927C0210927D02E0E010
:10045000F8E3099511E0A0E0B1E0E6E0F7E302C0BF
:1004600005900D92A435B107D9F722E0A4E5B1E0DB
:1004700001C01D92AA37B207E1F70E9488170C94B9
:10048000421B0C94000081FF08C0469A82FF07C0FF
:10049000479A83FF06C08E9A08954698F7CF4798EB
:1004A000F8CF8E980895482F2091760290913D02C2
:1004B00057E0291302C080E0089530E0529FF00118
:1004C000539FF00D1124E25CFD4F8181681306C03B
:1004D0008081481303C085818111EECF2F5F3F4F8C
:1004E0002770E7CFE8EDF0E080818E7F8083109267
:1004F000E2001092DA001092E100A0EEB0E08C91E0
:1005000081608C9380818F77808319BCA7EDB0E0E8
:100510008C918E7F8C9380818F7E808310920E02CF
:1005200008952091E4003091E50095E6A90120911D
:10053000EC00822F817020FF06C08091E80080FFD0
:1005400006C080E008952091E80022FD1AC0809145
:100550003302882389F0853089F08091EB0085FD96
:100560000FC02091E4003091E50042175307F9F2E3
:100570009150E1F684E0089582E0089583E00895C3
:1005800081E008958091350287FF13C08091E800D3
:1005900082FF06C08091E8008B778093E80004C05A
:1005A000809133028111F2CF089580913302882324
:1005B000D9F38091E80080FFF8CF8091E8008E7732
:1005C000ECCF982F9093E900242F762F50E08917D5
:1005D00031F07091EC002091ED005091F00021FD80
:1005E00007C09F5F973071F78093E90081E008951D
:1005F0003091EB003E7F3093EB003091ED003D7F7A
:100600003093ED003091EB0031603093EB0070934C
:10061000EC002093ED005093F0002091EE0027FDB8
:10062000E0CF80E00895B0E0A0E0E9E1F3E00C94D1
:10063000A21AC8EDD0E088818F7E8883E7EDF0E0D4
:1006400080818160808384E082BF81E080930E029C
:1006500088818E7F888302EE10E0F801108210926C
:10066000DA0081EEC82ED12CF601108288818F77B6
:10067000888388818068888388818F7D888319BC7E
:100680001092330210923402109232021092310210
:1006900090EEE92EF12CF70180818B7F8083888199
:1006A0008160888342E060E080E00E94E102F60120
:1006B00080818E7F8083F80180818160808380814A
:1006C00088608083F70180818E7F8083888180614C
:1006D0008883CDB7DEB7E8E00C94BE1AFC018091A8
:1006E0003B0290913C0286179707A0F061157105B7
:1006F00029F49091E8009E779093E80090E06115CE
:10070000710551F4911108C08091E80082FF34C056
:1007100080E00895BC01F2CF809133028823C1F1BB
:100720008530C1F18091E80083FD30C08091E80000
:1007300082FDEACF8091E80080FFE1CF8091F30055
:100740002091F200382F6115710519F0283031051C
:1007500058F091E02830310509F090E02091E80050
:100760002E772093E800CBCF81918093F1006150E8
:1007700071092F5F3F4FE7CF80913302882341F00B
:10078000853041F08091E80083FFBECF81E008957D
:1007900082E0089583E008958091100208959C01FD
:1007A0004FB7F8948091080290910902A0910A0233
:1007B000B0910B024FBF821B930B08952FB7F89493
:1007C0008091080290910902A0910A02B0910B0257
:1007D0002FBF0895A3E0B0E0E0EFF3E00C94A81A77
:1007E000209105023091060228173907A1F0909355
:1007F000060280930502E0910302F0910402309713
:1008000051F024E029839B838A830680F781E02DC1
:10081000CE01019609952396E2E00C94C41AA3E058
:10082000B0E0E5E1F4E00C94A81A209101023091C7
:10083000020228173907A1F0909302028093010267
:10084000E0910302F0910402309751F023E02983F4
:100850009B838A830680F781E02DCE01019609955E
:100860002396E2E00C94C41AE0910302F091040292
:10087000309729F00190F081E02D0995089580E0EE
:1008800008950E94DE039C019091FD018091FE017C
:10089000982B21F03093FA012093F9019091FF01F8
:1008A00080910002982B21F03093F8012093F701FA
:1008B000E0910302F0910402309749F082E08093C6
:1008C000FB010480F581E02D8BEF91E009950895FF
:1008D0008091F60180FD16C081FD16C082FD16C014
:1008E0008091F5018823A1F0883280F428E0829F6E
:1008F000C001112468E270E00E947E1A862F672BE7
:1009000039F0089582E0089584E0089588E008951C
:1009100081E008958091F60180FD14C081FD14C02E
:1009200082FD16C08091F401882381F08E3180F41D
:1009300020E5829FC00111246EE170E00E947E1AC2
:10094000862F089584E1089588E2089588E0089547
:1009500080E50895282F35EB2303C001112497FF6C
:1009600004C080589109892F089580589F4FFBCF6C
:1009700080E00895F894E82FE295EF70F0E031A15F
:10098000282F2F7081E090E001C0880F2A95EAF7A8
:10099000982F9095932391A392A1892B82A3789469
:1009A000089590910C0292FF10C041E0282F24710D
:1009B000243009F040E031E0282F2871283009F078
:1009C00030E0431711F02CE0822793FF10C041E084
:1009D000282F2471243109F040E031E0282F2871BC
:1009E000283109F030E0431711F02CE082273091D4
:1009F0000D0230FF10C051E0282F2171213009F085
:100A000050E041E0282F2871283009F040E05417C9
:100A100011F029E0822731FF10C041E0282F217119
:100A2000213109F040E031E0282F2871283109F008
:100A300030E0431711F029E0822794FD877E089566
:100A400082389105B9F1B0F48133910509F47DC084
:100A500048F48932910509F46DC08A32910509F490
:100A60007BC008958533910509F45FC089339105F2
:100A700009F10895833E9105D9F138F4803E91053E
:100A800029F1823E910579F10895863E9105D9F1CB
:100A9000873E910509F43EC0843E910541F52091C1
:100AA0000D0221FF24C080910C0284FD19C087EE45
:100AB00090E0089520910C02237009F05AC0209113
:100AC0000D0223FF14C089E290E0089520910C02EA
:100AD00020FD38C030910D0230FF09C024FF43C013
:100AE00090E080E0089520910C0222FDF7CF089558
:100AF00020910C0222FD3AC030910D0230FD39C028
:100B000024FFF5CFEDCF20910C0223FFF0CF24FD81
:100B1000E7CFCDCF20910C0223FD2EC030910D02E6
:100B200031FFEECF84EE90E0089520910C0225FF76
:100B3000DECFC9CF20910C0225FD21C020910D02EE
:100B400023FFD5CF89E390E0D2CF20910C0226FF7E
:100B5000CECF8AE290E0089520910C0226FFC7CF05
:100B600081E390E0089583EE90E0089582EE90E0B6
:100B7000089580EE90E0089586EE90E0089585E374
:100B800090E008957A30C8F46830B8F48330C0F447
:100B9000E72FF0E09AE0899FE00DF11D112483E03A
:100BA000EE0FFF1F8A95E1F7E60FF11DEE0FFF1F15
:100BB000E455FF4F85919491089580E090E0089569
:100BC00081E0FCCF1F93CF93DF930E942005EC01BF
:100BD000C11580E5D807F0F5C11580E4D80708F005
:100BE0009CC0C03ED10520F5CD3CD10508F082C0A7
:100BF000C83AD10578F4C53AD10508F073C0C130C0
:100C0000D10519F1209709F1C430D105F0F4D0E0F5
:100C1000C0E01BC0C33CD105D0F7C85AD0E0CC0F10
:100C2000DD1FC45FDE4F0990D881C02DD4640DC094
:100C3000C11580E2D80708F0D1C0C11581E0D807FE
:100C400008F05AC0C83ED10510F7CE01DF91CF9110
:100C50001F910895C03682E5D80718F5C03482E5A3
:100C6000D80708F06BC0C03282E5D80708F05FC033
:100C7000C11582E5D80708F497C02C2F2695269534
:100C800080E2289F900111248C2F8370C1E0D0E076
:100C900002C0CC0FDD1F8A95E2F7C22BD32BDD6893
:100CA000D4CFC03A82E5D80760F4C03882E5D807CF
:100CB00008F459C0CF71D0E0DC2FCC27C46FD06AC4
:100CC000C4CFC03C82E5D80708F462C0C03E82E5CC
:100CD000D80708F09CCFDC2FCC27CC27DF71C06F62
:100CE000D06AB3CFC55AD0E0C75FDE4FC881D0E02D
:100CF000D064ABCFD065A9CF8D2F0E94D104182F1F
:100D0000CE0199270E942005C12FD0E0DC2FCC27EF
:100D1000CC27DF71C82BD92B98CFCE0199270E9401
:100D20002005CC27DF70C82BD92BD06A8ECFCF718E
:100D3000D0E0DC2FCC27C16FD06A87CF2C2F26952F
:100D40002695277080E2289F900111248C2F8370B4
:100D5000C1E0D0E002C0CC0FDD1F8A95E2F7C22BC4
:100D6000D32BDC6872CF2C2F26952695277080E236
:100D7000289F900111248C2F8370C1E0D0E002C025
:100D8000CC0FDD1F8A95E2F7C22BD32BDA685DCF3B
:100D90008C2F8F710E94D104C82FD0E0DC2FCC277C
:100DA000CC27DF71D06251CF8C2F8F710E94D1047C
:100DB00055E0D695C7955A95E1F7CF70D0E0DC2F76
:100DC000CC27282F30E084FF05C044E0220F331FDA
:100DD0004A95E1F7C22BD32BD06937CF8D2F8F7176
:100DE0000E94D104182FCE0199270E942005C12FFF
:100DF000D0E0DC2FCC27CC27DF71C82BD92BD2CF6A
:100E000080959091CA0198239093CA01089590917A
:100E100008019923D1F090910C0297FF16C0E82F9A
:100E2000E695E695E695EE31E0F4F0E0EA5AFE4FFD
:100E3000282F277081E090E001C0880F2A95EAF7FB
:100E400080959281892382830895E8E5F1E091916C
:100E5000891303C0DF0111971C9291E0EE35F90769
:100E6000B1F70895909108019923C1F090910C0277
:100E700097FF14C0E82FE695E695E695EE31F8F475
:100E8000F0E0EA5AFE4F877021E030E001C0220F07
:100E90008A95EAF78281822B82830895A8E5B1E0E2
:100EA000EFEF90E02D91821751F0EF3F19F42111EF
:100EB00001C0E92F9F5F9630A9F7EF3F09F408952D
:100EC0000E2E000CFF0BEA5AFE4FE6CF8091760201
:100ED00090913D02981301C008958F5F8770FACFFB
:100EE000B0E0A0E0E6E7F7E00C94A11A7C010091E5
:100EF000DC011091DD018091DA019091DB01082B7A
:100F0000192BCFE0D0E0CC24C394D12CBC2EC60149
:100F10000C2E02C0880F991F0A94E2F780239123B8
:100F2000892B49F4219790F7B12C8B2DCDB7DEB7E3
:100F3000E9E00C94BD1AB7018C2F0E94C2050E94F3
:100F4000E205019779F3F1CFCF93DF93EC010E9493
:100F50007007BE010E94C2050E94E205DF91CF9199
:100F600008959A3070F5883060F528E0929FF0017E
:100F70001124E80FF11D6E2F677083E0F695E79559
:100F80008A95E1F7EE0FFF1FEE0FFF1FE858FE4FA7
:100F900050E040E080E0219130E0062E02C036951E
:100FA00027950A94E2F721703327042E01C0220FFF
:100FB0000A94EAF7822B4F5F5F4F4430510559F78F
:100FC000089580E008959A3090F5883080F528E003
:100FD000929FF0011124E80FF11D2E2F277041E0A0
:100FE00001C0440F2A95EAF783E0F695E7958A95C4
:100FF000E1F7EE0FFF1FEE0FFF1FE858FE4F30E046
:1010000020E070E05191DF011197CB01022E02C068
:10101000969587950A94E2F78170819585278423B8
:1010200085278C932F5F3F4F2430310559F7089562
:10103000CF93DF93EC010E943404CE010E9443025F
:10104000D093DD01C093DC01DF91CF91089521E0C1
:1010500030E002C0220F331F8A95E2F720953095C9
:101060008091DC019091DD01822393230E94180876
:1010700008959091A701809589238093A701282F37
:10108000277069F4891759F090910D0292FF07C0FB
:101090008695869586950E9427081092A701089547
:1010A00021E030E002C0220F331F8A95E2F78091E1
:1010B000DC019091DD01822B932B0E94180808958A
:1010C0009093DB018093DA010895FC0124812223AF
:1010D000C1F0808191810E94A40792959F70963003
:1010E00091F058F4925F9F70923058F4803F19F05D
:1010F00030F4883E30F481E008959A5FF4CF843F65
:10110000D1F380E00895883EB0F3813FD1F7F3CF6B
:10111000662309F45DC08D3C41F40E948A048195E8
:101120008093FE010E94410408958E3C19F40E94B0
:101130008A04F6CF8F3C31F40E948A048195809313
:10114000FD01F0CF803D19F40E948A04F8CF893D5B
:1011500029F40E9468048093FF01E4CF8A3D21F4C2
:101160000E9468048195F7CF8B3D31F40E9468049A
:10117000819580930002D6CF8C3D19F40E946804BB
:10118000F8CF9FE2980F983070F4815D990B21E0C1
:1011900030E001C0220F8A95EAF78091FC01822B92
:1011A0008093FC01BFCF8D3D31F48091F6018160C9
:1011B0008093F601B7CF8E3D21F48091F6018260D5
:1011C000F7CF8F3D09F0AECF8091F6018460F0CF6C
:1011D0004091FD018D3C59F48091FE0187FF0DC0C7
:1011E0001092FE0141110BC01092F40108C08E3C18
:1011F00081F48091FE0118169CF3442381F08091C4
:10120000FF0190910002892B09F08CCF1092F5011B
:1012100089CF8F3C49F447FFF0CF1092FD018091B8
:10122000FE018111ECCFE0CF803D19F41416ACF330
:10123000E4CF9091FF01893D29F41916F4F610923C
:10124000FF01DBCF8A3D19F497FFD7CFF8CF9091FC
:1012500000028B3D29F497FFD0CF10920002CDCF32
:101260008C3D19F41916CCF3C8CF9FE2980F983033
:1012700090F4815D990B21E030E0B90102C0660F66
:10128000771F8A95E2F7CB0180959091FC01892325
:101290008093FC01B2CF8D3D31F48091F6018E7FB9
:1012A0008093F601AACF8E3D21F48091F6018D7FC7
:1012B000F7CF8F3D09F0A1CF8091F6018B7FF0CF62
:1012C000CF93C82F0E9434048091DC019091DD01FE
:1012D0000E944302C1FF03C08D9ACF9108958D985B
:1012E000FCCFA6E0B0E0E7E7F9E00C94A71A498349
:1012F0005A8349815A819923A1F0222391F0CA018E
:101300000E947007182F682F89819A810E94E30735
:1013100069817A81812F0E94C2052696E3E00C94B0
:10132000C31ACA010E94B107182FF2CF0F931F935F
:10133000CF93DF938B01EA0190913302943061F5F2
:101340008093E9008FEF9091E800815095FD06C0F1
:1013500095ED9A95F1F700008111F5CF8091E800A5
:1013600085FF1AC00E949102811111C08091E8008E
:1013700085FD06C08091E8008E778093E800F2CF6B
:10138000F80181918F018093F100219779F7809185
:10139000E8008E778093E800DF91CF911F910F9145
:1013A000089543E050E0BC0182E00E949609089550
:1013B00046E050E0BC0182E00E9496090895CF9378
:1013C000DF93EC0180910801811111C048E050E0E9
:1013D000BE0181E00E94960980E2FE01A1E1B2E037
:1013E00001900D928A95E1F7DF91CF910895809158
:1013F0000C0287FF05C040E282E050E0BE01EACF68
:1014000048E081E0FACF81E08093E00080E28093C1
:10141000D8001092C9008FE19EE40197F1F700C057
:10142000000087E090EBDC0180937A0290937B02CE
:10143000A0937C02B0937D0288E19CE00FB6F89403
:10144000A895809360000FBE90936000FFCF9091AD
:101450000D0292FB222720F9281779F080FB92F9E0
:1014600090930D0260910C0270910D0284E090E067
:101470000E941F1B82E00E94390808958091CA01D2
:101480009091C901892B809356019091C8019923AD
:10149000A1F0892B80935601809108018823E1F106
:1014A00080910C0287FF38C08EE1E8E5F1E090E022
:1014B0008150A0F591111092C80140E250E068EA15
:1014C00071E086E591E00E94351B892B21F180E2D5
:1014D000E6E5F1E0A8EAB1E001900D928A95E1F726
:1014E000E0910302F09104023097A9F08091080185
:1014F000882359F080910C0287FF07C08091560124
:101500008093570186E0809356010280F381E02D9D
:1015100086E591E00995089586E0C7CF21912223C1
:1015200039F29F5FC5CF1092CA0180910801E8E5AA
:10153000F1E0882329F180910C0287FF21C08EE120
:10154000DF011D928A95E9F790E080E00E940F0488
:1015500090E080E00E94EA031092C9010E943E0AD6
:1015600086E0EBEFF1E0DF011D928A95E9F710923A
:10157000F4011092F5011092F6010E9441040895C1
:1015800086E0DECFAAE2B0E0E8ECFAE00C94A71A1D
:1015900085E392E02091F100FC012193CF01F2E07C
:1015A0008D339F07B9F780913602833009F470C0FC
:1015B000B8F4813009F447C0823009F4B1C0809199
:1015C000E80083FF7EC280913502909136029A3006
:1015D00008F077C2E92FF0E0EC5BF44E0C94921A1D
:1015E0008A3009F48CC08B3009F46FC0893039F728
:1015F00080913502813219F78091390290913A0237
:101600000297E8F68091E800877F8093E800809158
:10161000E80082FF38C09091F3008091F2000297B9
:1016200031F48091F100813011F0863021F4809105
:10163000F100809310028091E8008B778093E8009E
:101640000E94C202BCCF80913502813A09F0B7CF27
:101650008091E800877F8093E80080913902909123
:101660003A02892B61F460E281E192E070E00E942D
:101670006E038091E8008B778093E800A0CF60E054
:1016800090E080E0F3CF809133028111C0CF97CFFB
:1016900080913502813A09F092CF80913902909180
:1016A0003A02892B09F08BCF8091E800877F8093E5
:1016B000E8008091E80080FFFCCF809108018093D2
:1016C000F1008091E8008E77B9CF809135028132A8
:1016D00009F075CF8091390290913A02892B09F077
:1016E0006ECF8091E800877F8093E8000E94C2025D
:1016F00080913702809308010E94930A60CF809105
:101700003502813209F05BCF8091E800877F8093BA
:10171000E8000E94C2028091380280930F024FCFEE
:1017200080913502813A09F04ACF8091E800877FA5
:101730008093E8008091E80080FFFCCF80910F0249
:10174000BECF803899F0823809F0BBC18091390250
:101750008F70873008F0B5C18093E9008091EB006D
:1017600085FB882780F91092E90006C0809131023C
:1017700090913202911182609091E800977F90934E
:10178000E8008093F1001092F1008091E8008E77DC
:1017900094C1882309F482C1823009F092C18091FA
:1017A0003702811185C1809139028F702FEF280F88
:1017B000263008F086C18093E9002091EB0020FFDD
:1017C00077C1933031F48091EB0080628093EB001D
:1017D0006FC19091EB0090619093EB0021E030E0BD
:1017E00001C0220F8A95EAF72093EA001092EA00DE
:1017F0008091EB008860EACF811163C110913702BC
:101800001F778091E3008078812B8093E3008091A3
:10181000E800877F8093E8000E94C2028091E80080
:1018200080FFFCCF8091E30080688093E30082E03A
:10183000111183E08093330244C18058823008F054
:1018400040C180913702909138028C3D23E092078D
:10185000A1F583E08A838AE289834FB7F894DE0199
:10186000139620E03EE051E2E32FF0E05093570062
:10187000E49120FF03C0E295EF703F5FEF708E2F81
:1018800090E0EA30C0F0C7968D939D932F5F24318E
:1018900059F74FBF8091E800877F8093E8006AE2A4
:1018A00070E0CE0101960E946E038091E8008B7774
:1018B0008093E80006C1C096E7CF4091390250916D
:1018C0003A02292F33272330310509F444C078F533
:1018D0002130310509F46FC08BE390E0E6E8F3E0D6
:1018E0002230310509F0EDC02091E800277F2093D8
:1018F000E80020913B0230913C028217930708F4E4
:101900009C0140E02115310509F064C0411162C01D
:101910008091E80082FDC9CF80913302882329F2AB
:10192000853019F28091E80083FFF2CFBECF2132DB
:101930003105A9F12232310509F0C3C04115510525
:1019400009F443C04130510509F0BBC086EB90E07B
:10195000ECE8F2E0C9CF992781309105C1F00097FA
:1019600059F0029709F0ADC0E3EDF3E0E4918E2F5A
:1019700090E0E3EDF3E007C0EDE0F4E0E4918E2FBA
:1019800090E0EDE0F4E0009709F49BC0ADCFE9EE04
:10199000F3E0E4918E2F90E0E9EEF3E0F4CF41150F
:1019A000510571F04130510509F08BC089E090E09C
:1019B000E1EBF3E099CF82E190E0E1ECF3E094CF4A
:1019C00089E090E0E8E9F3E08FCF84E490E0E2E49E
:1019D000F3E08ACF80913302882309F466CF853003
:1019E00009F463CF8091E80083FD5FCF8091E80028
:1019F00082FD8ECF8091E80080FF84CF9091F3002C
:101A00008091F2002115310519F08830910550F0D0
:101A100041E0089709F040E08091E8008E778093DC
:101A2000E80070CF44914093F10031962150310984
:101A30000196E8CF803809F044C08091E800877FA4
:101A40008093E800809134028093F1009ECE811152
:101A500038C0109137021230A0F58091E800877FDE
:101A60008093E800109334020E94C202112311F007
:101A700084E005C08091E30087FDFACF81E0809388
:101A8000330242E061EC81E00E94E10242E261EC5B
:101A900082E00E94E1028091330213C080913702FC
:101AA000813079F481E0933009F080E08093320254
:101AB0001092E9008091E800877F8093E8000E94FF
:101AC000C2028091E80083FF0AC08091E800877F0E
:101AD0008093E8008091EB0080628093EB00AA96EF
:101AE000E3E00C94C31A0E94930A2FEF84E39CE076
:101AF000215080409040E1F700C0000088E19CE068
:101B00000FB6F894A895809360000FBE9093600084
:101B1000FFCF882321F00E9400070E943E0A08950B
:101B2000882339F09091CA01982B9093CA010E94A2
:101B30003E0A0895882309F456C0823879F40E9439
:101B4000340481FF50C089E30E9432070E943E0A9C
:101B500089E30E9407070E943E0A0895833859F4DA
:101B60000E94340480FF3FC083E50E9432070E9438
:101B70003E0A83E5EECF843859F40E94340482FF94
:101B800032C087E40E9432070E943E0A87E4E1CF18
:101B90009CEF980F913AE8F290E2980F983050F449
:101BA000877091E001C0990F8A95EAF7892F0E940A
:101BB0000007D1CF9BE5980F933028F490E080E0A8
:101BC0000E940F04089598E5980F9B3128F490E047
:101BD00080E00E94EA03089593E3980F933118F48C
:101BE00060E00E9488080895CF93C82F8823C9F029
:101BF0008238C9F40E94340481FD13C089E30E9435
:101C000032070E943E0A2FEF87EE93E0215080407A
:101C10009040E1F700C0000089E30E9407070E949E
:101C20003E0ACF9108958338A1F40E94340480FDC8
:101C3000F8CF83E50E9432070E943E0A2FEF81EE23
:101C400094E0215080409040E1F700C0000083E51F
:101C5000E4CF8438A1F40E94340482FDE2CF87E40B
:101C60000E9432070E943E0A2FEF81EE94E021503D
:101C700080409040E1F700C0000087E4CECF8CEFB9
:101C80008C0F813A88F580910801882301F18091B9
:101C90000C0287FF1CC0EC2FE695E695E695F0E078
:101CA000EA5AFE4F828190E04C2F477021E030E0ED
:101CB00002C0220F331F4A95E2F782239323892B18
:101CC00079F08C2F0E9407070E943E0A09C0E8E5C0
:101CD000F1E08191C817A9F321E0EE35F207C9F7C9
:101CE0008C2F0E9432079BCF80E28C0F883068F4E3
:101CF000C77021E030E001C0220FCA95EAF7809159
:101D0000CA01822B8093CA018ACFEBE5EC0FE33046
:101D100040F4F0E0E75FFE4F808190E00E940F0406
:101D200080CFE8E5EC0FEB3150F4F0E0EE0FFF1F51
:101D3000E45FFE4F808191810E94EA0372CF83E3CA
:101D40008C0F833108F06DCF61E08C2F0E948808E2
:101D500068CF0F931F93CF93DF93C62FD42F022FFB
:101D6000FC0185818823A9F0609379020E94DE033B
:101D70009093780280937702C77081E001C0880F4A
:101D8000CA95EAF70E94900DDF91CF911F910F91B4
:101D9000089580917902681335C0809177029091FF
:101DA00078020E94CF03883C910560F510E21D0F78
:101DB000CD17B9F080E28C0F883040F4C77081E015
:101DC00001C0880FCA95EAF70E94890D183048F4BF
:101DD00081E09D2F977001C0880F9A95EAF70E94C5
:101DE000900D802F0E94F40D802F0E949A0D1830C4
:101DF00058F6D77081E001C0880FDA95EAF70E94A3
:101E0000890DC2CFC77081E001C0880FCA95EAF77B
:101E1000F6CFB0E0A0E0EFE0FFE00C94A01A8C0158
:101E2000FC018481882341F121E04081518162815C
:101E3000738195810E947109EC01FC01E851FC4716
:101E4000E730F105A8F5E25BF44E0C94921A26E215
:101E500041EE61EEC8010E94A90E8091A701877032
:101E600059F0F8018581882339F080910D0282FFB5
:101E700003C082E00E943908CDB7DEB7EAE00C94D7
:101E8000BC1A27E245EE65EEE5CF26E241EE60EEB4
:101E9000E1CF27E245EE64EEDDCF26E241EE62EED1
:101EA000D9CF27E245EE66EED5CF28E241E0EBCF71
:101EB000F8018581882309F477C310927902CE0155
:101EC0009057839708F05CC384E090E00E94EB1A7F
:101ED00090930D0280930C02FE01E150F047E23234
:101EE000F10520F4EB5AF44E0C94921A80910C02F6
:101EF000816080930C0295C080910D028860809370
:101F00000D028FC080910C028260F3CF80910C0291
:101F10008460EFCF80910C028860EBCF80910D023E
:101F20008160EDCF80910D028260E9CF80910C023B
:101F30008061DFCF80910C028062DBCF80910C0248
:101F40008064D7CF0E94930A80910C028068D1CF21
:101F500080910C028C60CDCF80910D028360CFCF39
:101F600080910C028E7FC5CF80910D02877FC7CFF5
:101F700080910C028D7FBDCF80910C028B7FB9CFF9
:101F800080910C02877FB5CF80910D028E7FB7CFF5
:101F900080910D028D7FB3CF80910C028F7EA9CFEF
:101FA00080910C028F7DA5CF80910C028F7BA1CFF9
:101FB0000E94930A80910C028F779BCF80910C0234
:101FC000837F97CF80910D028C7F99CF80910C02F7
:101FD00082FB992790F921E0922790FB82F990FBF0
:101FE00083F987CF80910D02982F909591708E7F05
:101FF000892B90FB81F983CF90910C02892F8F7BE5
:1020000096FF806476CF0E94930A90910C02892FEC
:1020100097FB87F980586DCF61E08EE090E00E94D9
:10202000011B60910C0270910D0284E090E00E940F
:102030001F1B0E94930A11CF60E0EFCF90910C021A
:10204000892F8F7E94FF806154CF90910C02892F4D
:102050008E7F90FF81604DCF90910D02892F877FF9
:1020600093FF88604CCF85E39AC285E3A6C20E94A5
:10207000930AFFEF24E33CE0F15020403040E1F7C9
:1020800000C000000E94030A6FEF7FEF90E080E045
:102090000E941F1B0E94730D80910D0282FB8827F6
:1020A00080F991E089270E94270AF8018581C08183
:1020B000D181882309F44AC0CE010E947007F82E0E
:1020C000682FCE010E94E307BE018F2D0E94C2053A
:1020D0000E94E205D82FC92FA82EF801C580B6802E
:1020E000B2943FE0B3228091A7018770F1F0EC2C0D
:1020F000CC20E1F0892F807F803451F080E28D0F79
:10210000883098F0B11004C0892F807E803269F049
:1021100080910D0282FF09C082E00E9439088091FF
:10212000A7018770EE24E3948111E12CDC2ED29478
:102130002FE0D222FBE0FD1508F46DC0ED2DF0E09C
:10214000E958F44E0C94921A80E0ADCFCE010E9473
:10215000B107F82EB9CF2C2F2F70F22EC07F19F0B7
:10216000F29490EFF922CC20B9F0FF2069F080E2E0
:102170008D0F883010F0A11009C08091CA01F82A93
:10218000F092CA010E943E0A8D2F43C08091C9017E
:10219000F82AF092C901F6CF8D2F0E949A0DFF20E8
:1021A000D1F1D05ED83010F0A11004C08F2D0E9464
:1021B000000706C0F0948091C901F822F092C9018D
:1021C0000E943E0A28C03C2F3F70F32EC07FC032D1
:1021D00019F0F29480EFF822AA2059F081E0A816B5
:1021E00009F47BC0CC2009F487C0BB2009F449C0A6
:1021F000CBCF80910D0282FD40C0CC20C1F1FF20E9
:1022000039F08091CA01F82AF092CA010E943E0A70
:1022100080E00E94F40D2D2D2850330B2430310521
:1022200020F40E9434040E946009EE20A9F08091FD
:10223000A70180FD11C0F8011582869586958695C7
:102240000E945008C8010E94090F8091A70186953D
:10225000869586950E94270820E0F80140815181EB
:1022600062817381848195810E94710905CE80E02D
:102270000E949A0DFF2079F299CFCC20A1F0B110E5
:1022800004C08F2D0E94900DC6CF91E0B912C3CF2C
:102290008091C8019F2D9823F91609F4BCCFF82A24
:1022A000F092C801B8CFB110B6CF8F2D0E94890D22
:1022B0009091C8018F2D892329F08F2D8095892336
:1022C0008093C801809177019F2D982309F4A3CFB3
:1022D000F094F822F09277019ECFCC2029F0E5E02F
:1022E000EB1508F498CFCDCFF4E0FB1508F493CFAD
:1022F0008F2D0E94890D8FCFBB20D1F329E3A2122D
:1023000009C03FEF87EE93E0315080409040E1F705
:1023100000C000008D2F0E949A0D7DCF8C2F8695D6
:102320008695837069F0813009F075CF8D2F9C2FD1
:102330009370C11002C080E090E00E94EA036BCF6E
:102340008D2F9C2F9370C11002C080E090E00E94FE
:102350000F0461CF6C2D8D2F0E9488085CCF8C2FCD
:10236000837009F03FC0C11056CF4D2F429546955E
:102370004770440F440F2D2F2F7030E0042E02C001
:10238000220F331F0A94E2F790E080E0D4FF09C0E7
:102390008FE090E002C0880F991F4A95E2F7809580
:1023A0009095C695C695C370C23099F078F4409167
:1023B000DA015091DB01C13039F0822B932B842359
:1023C00095230E94600827CF242B352B822B932B3B
:1023D000F8CF822B932B2091DA013091DB018227F9
:1023E0009327EFCF8695CC2011F08C2F8170882316
:1023F00009F411CF4D2F429546954770440F440F75
:102400002D2F2F7030E0042E02C0220F331F0A94AC
:10241000E2F790E080E0D4FF09C08FE090E002C0D6
:10242000880F991F4A95E2F780959095C695C695B5
:10243000C370C23099F078F44091DC015091DD0115
:10244000C13039F0822B932B842395230E941808E6
:10245000E2CE242B352B822B932BF8CF822B932B80
:102460002091DC013091DD0182279327EFCFCF70DF
:10247000CC2029F08C2F0E9450088D2F03CF8D2F58
:102480000E94890D8C2F0E942708C5CE8D2FE2EF68
:10249000AE1699F1EA1570F0F0EFAF16D1F021EF1A
:1024A000A21691F0CC2009F45BC0B1106DCE8C2F38
:1024B0008F7127C033EFA31639F194EFA912F2CF31
:1024C00080910D0282FD2EC08C2F8F71CC20D9F20D
:1024D00018C0CC2069F0E4E0EB1508F49CCECF7175
:1024E00081E090E002C0880F991FCA95E2F7B8CF4B
:1024F000F5E0FB1508F48FCEF2CF8C2F8F71C11051
:10250000C2CF0E94500887CE90E080E0CC2009F432
:102510009DCFCF7181E090E002C0880F991FCA95CE
:10252000E2F794CFCC2089F0CF718C2F0E94500815
:1025300080910D0282FF07C028E0C29FC0011124D4
:1025400083608093A7018C2FDCCF81E00E94390843
:1025500031E03B1508F05FCE82E00E9439085BCE87
:10256000BB2059F0893309F0D5CE8FEF97EEE3E029
:1025700081509040E040E1F7CBCE8C2F8F7183CF1C
:10258000C631FCE7DF07E1F48091CA018A7A91E065
:1025900009F490E090937601811165CD89E20E9463
:1025A00032070E943E0A59CCC631DC4709F07DCD86
:1025B00080917601811159CD89E20E940707F1CF00
:1025C000C3303CE7D30709F45FCD50F4C1159CE755
:1025D000D90709F44CCDC130DC4709F45BCD65CD9A
:1025E000CB35FCE7DF0709F4AFCDCC352CE7D207BC
:1025F00009F452CDCA35DC4709F057CD81E053CDFF
:10260000CF93DF938091A601807F09F04DC0809128
:10261000A501882309F448C0E091760250913D025B
:10262000C091A101D091A0016091A2017091A3017C
:1026300047E05E17C9F18E2F90E0E49FF00111246E
:10264000E25CFD4F2481222391F1489FF001499FD4
:10265000F00D1124DF01A25CBD4F11962C91119752
:102660002C1325C02C912D1322C015962C91159753
:1026700021111DC012962D913C91261B370B283C31
:102680003105A8F48091A6018F7080618093A60126
:10269000EC5BFD4F80818F708061808380EA91E0E8
:1026A0000E94090F0E946607DF91CF910895FC01F7
:1026B0003196E770BECFA4E1B0E0E1E6F3E10C941F
:1026C0009E1A8C0186E0F801DE011F9601900D92A2
:1026D0008A95E1F7F8018481E58090EAA92E91E0DE
:1026E000B92E9091A401911128C0882319F1EE20F0
:1026F000F1F0C8010E946508F82E8823C1F087E038
:10270000F801D50101900D928A95E1F78091A4011D
:10271000813031F48091A0019091A1010E94A40721
:102720000E9400138F2D6496ECE00C94BA1AC80135
:102730000E94090FFF24F394F5CFD080C1808280DE
:102740009380F090A5012091A2013091A301A401F2
:10275000421B530BFF2009F4D9C0483C510508F037
:1027600092C08823F9F29091A1018091A601282FAF
:10277000207F09F056C0C91214C09091A001D9124F
:1027800010C0E11048C08F7080618093A60180EA7C
:1027900091E00E94090F8091A601F8018683F12C37
:1027A000C1CFE11038C06C2D8D2D0E9453026C2DCD
:1027B0008D2D0E945302E82E8111F1CFDF86C88A49
:1027C0008F8598890E94A407292F22952F70243085
:1027D00058F49F70223088F0992399F0F80196817F
:1027E000907F79F4FE2C9ECF2A5F2F70223068F004
:1027F000C8010E94090FEF2CF5CF992311F088230F
:1028000089F3805E883070F3F3CF803F58F3815FA7
:10281000833070F7E7CF8091A60181608093A60195
:10282000BECFC91207C09091A001D91203C0EE20FB
:1028300009F48DC0C8010E946508882309F477CF88
:10284000EE2009F474CF8091A601803288F02091A7
:10285000A0013091A101398728879B868A869091B3
:10286000A4019C871D868E87CE0108960E94090FC1
:1028700087E0F801A0EAB1E001900D928A95E1F7B6
:102880000E94001357CF9091A601292F207F51F469
:1028900080EA91E00E94090F87E0F50111928A9584
:1028A000E9F77DCF882309F43DCF8091A1018C11F8
:1028B00010C08091A001D8120CC0E1100AC096830C
:1028C000C8010E94090F87E0F50111928A95E9F786
:1028D00029CFC8010E946508882309F428CFEE207B
:1028E00009F425CF8091A601803210F22091A00139
:1028F0003091A1013A8329839C828B829091A4011B
:102900009D831E828F83CE010196B0CF483C510536
:10291000D0F6882309F40ECFFE2CEE2009F407CF61
:102920008091A1018C1120C08091A001D8121CC0FF
:102930008091A60180FD0FC0982F907F61F0868363
:10294000903F31F0982F907F905F8F70892B868316
:10295000C8010E94090F87E0F801A0EAB1E00190E8
:102960000D928A95E1F7DECEC8010E9465088111BB
:102970007FCF8091A60181608093A601C8010E944B
:10298000090FD0CEABE1B0E0E8ECF4E10C94A61A6C
:102990004E8B5F8B688F798F8A8F9B8F192F911148
:1029A0001092C9011D8A86E0FE017696DE011F960F
:1029B00001900D928A95E1F70A8D002341F021E004
:1029C0004F85588969897A89C8010E9471090B8BE2
:1029D0001C8B87E0FE013F96DE01189601900D9258
:1029E0008A95E1F7CE0108960E945B1381110CC015
:1029F00087E0FE013896DE01119601900D928A95CE
:102A0000E1F78C8581110BC017E0809176029091DF
:102A10003D02891331C06B96E4E00C94C21A2091F8
:102A20003D0230E0C90101968770992740917602F6
:102A30004817190699F097E0929FD001939FB00D27
:102A40001124A25CBD4FFE01319601900D929A9522
:102A5000E1F780933D020E946607D6CF0E94930A59
:102A600010923D021092760287E0E0EAF1E0DF0189
:102A70001D928A95E9F7C8CF819FC0011124825C1D
:102A80009D4F0E945B13882331F28091760290E083
:102A900001968770992780937602B7CFA6E0B0E0C1
:102AA000E4E5F5E10C94A61A0E94DE038C01809106
:102AB000CB019091CC018017910781F019821A8285
:102AC0000E94DE03682F49815A81792F80E090E0CF
:102AD0000E94C2141093CC010093CB012696E4E02F
:102AE0000C94C21AAAE0B0E0E8E7F5E10C949F1A52
:102AF0008E010F5F1F4F8AE0F80111928A95E9F766
:102B000082E4C82E81E0D82EF12CE12CAA24A394D3
:102B1000B12CF60181916F018F3F09F443C0F89405
:102B2000E82FE295EF70F0E021A18F70A50102C0BF
:102B3000440F551F8A95E2F7CA01922F982B91A353
:102B400092A18095892382A3789400C0ECE4F1E0FF
:102B5000912C31E021912F3F09F465C0A22FA2955D
:102B6000AF70B0E090968C9190E02F7002C0959578
:102B700087952A95E2F780FD56C0832F982A330F58
:102B800051E0E435F50731F7F601319780818F3F49
:102B900011F00E94BA0480EA8A95F1F7F801EE0D6F
:102BA000FF1D9082EFEFEE1AFE0AFAE0EF16F10435
:102BB00009F0AFCF4AE050E0B80180ED91E00E940B
:102BC000351B892B91F18AE0F801A0EDB1E001906D
:102BD0000D928A95E1F781E08093CF010E94DE0398
:102BE0009093CE018093CD018091CD019091CE0143
:102BF0000E94CF030597E8F04AE050E060ED71E0F5
:102C00008EED91E00E94351B892BC1F08AE0E0ED4A
:102C1000F1E0AEEDB1E001900D928A95E1F781E02F
:102C20001092CF0107C080E0A9CF8091CF01811120
:102C3000DBCF80E02A96EBE00C94BB1A80E0F0CF6B
:102C40001F920F920FB60F9211242F933F934F9321
:102C50005F936F937F938F939F93AF93BF93CF9324
:102C6000DF93EF93FF93D091E900DF708091EC0048
:102C7000C82FC17080FDC0E81092E9008091F0007B
:102C8000877F8093F00078940E94C20A1092E90036
:102C90008091F00088608093F000CD2BCF70C093BE
:102CA000E900FF91EF91DF91CF91BF91AF919F919B
:102CB0008F917F916F915F914F913F912F910F90E5
:102CC0000FBE0F901F9018951F920F920FB60F9284
:102CD00011242F933F934F935F936F937F938F9321
:102CE0009F93AF93BF93EF93FF938091E10082FF97
:102CF00009C08091E20082FF05C08091E1008B7FD6
:102D00008093E1008091DA0080FF24C08091D80098
:102D100080FF20C08091DA008E7F8093DA0080915E
:102D2000D90080FF9DC080E189BD82E189BD09B4E1
:102D300000FEFDCF81E08093330280910E0281116D
:102D400009C00E9472020E9413038091E200846015
:102D50008093E2008091E10080FF17C08091E20043
:102D600080FF13C08091E2008E7F8093E20080910B
:102D7000E20080618093E2008091D80080628093BD
:102D8000D80019BC85E0809333028091E10084FF74
:102D90002BC08091E20084FF27C080E189BD82E1E1
:102DA00089BD89B5982F917080FFFBCF8091D800A5
:102DB0008F7D8093D8008091E1008F7E8093E10029
:102DC0008091E2008F7E8093E2008091E20081603A
:102DD0008093E20080913402882309F447C084E0A4
:102DE00080933302809133028091E10083FF27C0FA
:102DF0008091E20083FF23C08091E100877F809370
:102E0000E10082E080933302109234028091E1006D
:102E10008E7F8093E1008091E2008E7F8093E200BC
:102E20008091E20080618093E20042E060E080E017
:102E30000E94E1028091F00088608093F000FF9191
:102E4000EF91BF91AF919F918F917F916F915F9122
:102E50004F913F912F910F900FBE0F901F9018959B
:102E600019BC1092330210920E0274CF8091E300CD
:102E700087FD93E090933302B5CF78941F921FB6ED
:102E80001F9211248F939F93AF93BF938091080259
:102E900090910902A0910A02B0910B020196A11D26
:102EA000B11D8093080290930902A0930A02B09387
:102EB0000B02BF91AF919F918F911F901FBE1F90EA
:102EC00018951F921FB61F9211248F939F93AF9353
:102ED000BF9380910702811113C0809108029091E5
:102EE0000902A0910A02B0910B024196A11DB11DE9
:102EF0008093080290930902A0930A02B0930B02F8
:102F0000BF91AF919F918F911F901FBE1F901895F9
:102F1000CDB7DEB72E970FB6F894DEBF0FBECDBF8C
:102F200085B7806885BF85B7806885BF84B7877F90
:102F300084BF0FB6F894A895809160008861809353
:102F40006000109260000FBE80E890E00FB6F89429
:102F500080936100909361000FBE88EB94E09093A2
:102F60005501809354010E9472020E9413038091C4
:102F7000E20084608093E200789480913302882399
:102F8000A1F01091E9001F709091EC00892F8170E1
:102F900090FD80E8182B1092E9008091E80083FDF5
:102FA0000E94C20A1F701093E90082E084BD93E082
:102FB00095BD9AEF97BD80936E0002E411E0D801B1
:102FC0008D918D018F3F11F00E94BA04B1E00C3455
:102FD0001B07A9F70CE411E0F80181918F018F3FE5
:102FE00011F00E94BA04F1E004351F07A9F78AE046
:102FF000EEEDF1E0DF01282F1D922A95E9F7E0EDD3
:10300000F1E0DF011D928A95E9F790E080E00E94EF
:10301000EB1A863E9E4F09F464C066EE7EEF90E0A8
:1030200080E00E941F1B60E082E090E00E94011B94
:1030300060E083E090E00E94011B1092DB0110929F
:10304000DA0160E074E184E090E00E941F1B60E020
:1030500086E090E00E94011B6FEF87E090E00E9405
:10306000011B40E050E0BA0188E090E00E94131B91
:1030700060E084E290E00E94011B60E087E190E064
:103080000E94011B60E08CE090E00E94011B60E068
:103090008DE090E00E94011B19821A821B821C8223
:1030A0001D821E821F82188648E050E068E170E0B1
:1030B000CE0101960E94F11A40E050E0BA0180E290
:1030C00090E00E94131B40E050E0BA018FE090E0D6
:1030D0000E94131B40E050E0BA0183E190E00E949F
:1030E000131B82E090E00E94E31A8093E80184E0E1
:1030F00090E00E94EB1A90930D0280930C020E94C4
:103100007215EFEFF6E721E0E150F0402040E1F7E3
:1031100000C000000E9472158091DE0180FF08C08F
:103120006FEF7FEF90E080E00E941F1B0E94030A78
:1031300083E090E00E94E31A90E00E946008009112
:10314000DC011091DD010E943404C8010E94430299
:103150003E9A46983F9A4798869A8E980E943404E1
:103160008091DC019091DD010E94430280E091E0BA
:10317000909304028093030248E1E42EF12C00E4D2
:1031800011E030E1932E8091330222E1D22E85307E
:1031900009F489C00E94721589EEC82E81E0D82EEC
:1031A0009EEDA92E91E0B92ED501F60191918D9158
:1031B00021E0E33FF20709F482C09817B9F3812CAC
:1031C000D5017D905D01F60181916F01871521F197
:1031D000482E4724612C55245394852D8421A1F039
:1031E00069868A860E94DE039C878B871D8791E013
:1031F000852D872109F490E09E8749855A856B8546
:103200007C858D850E94C2146394550CF8E06F1282
:10321000E4CFF6013197708283942AE08212D0CFF6
:103220008FB7F894409108025091090260910A0208
:1032300070910B028FBF47C080913302843021F11F
:1032400080E00E946009109207020FB6F894A895DA
:10325000E09260000FBE0093600083B7817F8460BE
:1032600083BF83B7816083BF7894889583B78E7F4F
:1032700083BF0FB6F894A895809160008861809311
:103280006000109260000FBE80913202882359F0D6
:103290000E947215EEEDF1E0819181110AC181E089
:1032A000E83EF807C9F780913302853009F4C4CFAE
:1032B0000E94930A0E9434040E9460096BCF981305
:1032C0007ECF0E944E1586E0EBEFF1E0DE01119615
:1032D00001900D928A95E1F78090FC01D090FD015C
:1032E000C090FE01A090FF01B09000021092FD017D
:1032F0001092FE011092FF01109200028D2D8C2978
:1033000009F445C08091F9019091FA010E94CF0320
:103310009C019091F401992309F4EBC0253131050A
:10332000B0F19F3F19F09F5F9093F401DD2059F0B9
:103330000E948A049FEF1D140CF491E0899F802D58
:1033400011248093FD01CC2059F00E948A0491E061
:103350001C140CF09FEF899F802D11248093FE0197
:103360008091FD01882399F07090FE01772079F01B
:103370000E94AA04882309F490C08093FD01872D40
:103380000E94AA04882309F48BC08093FE018A2D31
:103390008B2909F445C08091F7019091F8010E94B2
:1033A000CF039C019091F501992309F49DC021352B
:1033B0003105B0F19F3F19F09F5F9093F501AA206E
:1033C00059F00E9468049FEF1A140CF491E0899F51
:1033D000802D11248093FF01BB2059F00E946804C6
:1033E00091E01B140CF09FEF899F802D1124809396
:1033F00000028091FF01882399F0A0900002AA208A
:1034000079F00E94AA04882309F44DC08093FF013B
:103410008A2D0E94AA04882309F448C080930002E0
:103420008091FC01881117C08091FD01882311F063
:10343000D81211C02091FE01222311F0C2120BC03C
:1034400090910002992311F09B1105C03091FF016A
:10345000332309F444C00E94410486E0FE01319602
:10346000ABEFB1E001900D928A95E1F70E94340430
:103470009091F301891709F486CE8093F3019FB7E9
:10348000F894409108025091090260910A027091EB
:103490000B029FBF0E94600974CE1093FD016FCF95
:1034A0001093FE0174CF1093FF01B2CF109300026E
:1034B000B7CF99BCD9BC09B400FEFDCF8091D8002C
:1034C0008F7D8093D8008091E00082608093E0003F
:1034D0008091E00081FDFCCF0E94930AE4CE822B14
:1034E000892B09F4BACFB7CF2B30310508F064CF60
:1034F00097CF2B30310508F016CF49CF97FB072E19
:1035000016F4009407D077FD09D00E94CF1A07FC6B
:1035100005D03EF4909581959F4F089570956195E3
:103520007F4F0895EE0FFF1F0590F491E02D099451
:103530002F923F924F925F926F927F928F929F92C3
:10354000AF92BF92CF92DF92EF92FF920F931F93B1
:10355000CF93DF93CDB7DEB7CA1BDB0B0FB6F89462
:10356000DEBF0FBECDBF09942A88398848885F84A2
:103570006E847D848C849B84AA84B984C884DF8013
:10358000EE80FD800C811B81AA81B981CE0FD11DF7
:103590000FB6F894DEBF0FBECDBFED010895AA1B94
:1035A000BB1B51E107C0AA1FBB1FA617B70710F02E
:1035B000A61BB70B881F991F5A95A9F78095909560
:1035C000BC01CD010895F999FECF92BD81BDF89A55
:1035D000992780B50895A8E1B0E042E050E00C944E
:1035E000271BDC01A40FB51F4150504048F0CB0110
:1035F000840F951F2E910E94021B41505040D0F71E
:103600000895262FF999FECF92BD81BDF89A0197B2
:1036100000B4021639F01FBA20BD0FB6F894FA9A1A
:10362000F99A0FBE08950396272F0E94021B0E944D
:10363000011B252F0E94021B242F0C94021B0196B4
:10364000272F0E94021B0C94011BDC01CB01FC0103
:10365000F999FECF06C0F2BDE1BDF89A319600B4EB
:103660000D9241505040B8F70895FB01DC0104C0B1
:103670008D910190801921F441505040C8F7881B6A
:10368000990B0895F894FFCFA10BC90B610DC90BDD
:10369000610DFC0B1D0C610D1A0D270D450F490F17
:1036A000270F410F4D0F510F550FB00F2510B80FB9
:1036B000820F860FBC0F8A0FC00FCC0F960F1E1003
:1036C0009A0FD00F9E0FD40FFC0FA20FD80F03102C
:1036D000A80FDE0FE60F8E0FC40F920FC80FAC0FAE
:1036E000E20FF20F0C101C107C0FB40F2C10AB105B
:1036F000AB10E310E3108E11AA110B110B11AF11D7
:06370000371246124612CA
:10370600CC03DF09D809D10901818283E200E900EF
:10371600EA00B500B600B700CD008301CC008A01EF
:103726009201940121022302240225022602270285
:103736002A02B300B4006F0070009F01CB019F0204
:10374600A0023231F0F1F4959392903336353497E6
:043756009694913084
:00000001FF
