:100000000C9482020C94BA020C94BA020C94BA02B8
:100010000C94BA020C94BA020C94BA020C94BA0270
:100020000C94BA020C94BA020C9444190C94001962
:100030000C94411A0C94BA020C94BA020C94BA02B1
:100040000C94BA020C94BA020C94BA020C94BA0240
:100050000C94BA020C941D1A0C94BA020C94BA02B5
:100060000C94BA020C94BA020C94BA020C94BA0220
:100070000C94BA020C94BA020C94BA020C94BA0210
:100080000C94BA020C94BA020C94BA020C94BA0200
:100090000C94BA020C94BA020C94BA020C94BA02F0
:1000A0000C94BA020C94BA020C94BA02050109022B
:1000B000A10185020901A1000509190129081500FE
:1000C0002501950875018102050109300931158165
:1000D000257F95027508810609381581257F9501D0
:1000E00075088106050C0A38021581257F95017572
:1000F000088106C0C005010980A101850319012AF4
:10010000B700150126B700950175108100C0050CD8
:100110000901A101850419012AA002150126A002E6
:10012000950175108100C005010906A1018506052C
:100130000719E029E71500250195087501810205D9
:1001400007190029EF1500250195F07501810205B9
:10015000081901290595057501910295017503910D
:1001600001C00660FF0961A1010962150026FF00B8
:100170009520750881020963150026FF00952075FA
:10018000089102C005010906A101050719E029E748
:1001900015002501950875018102950175088101F9
:1001A0000507190029FF150026FF0095067508812F
:1001B000000508190129051500250195057501910E
:1001C00002950175039101C00000000000000000CD
:1001D000000000000000000000000000000000001F
:1001E0000000000000000000000000007E0F00D4AE
:1001F000FFFFFFC7000000780000000000000000C3
:100200002A2B280000000000000000000000000071
:1002100000000029000000002C1E3420212224347C
:100220002627252E362D3738271E1F20212223244E
:1002300025263333362E37381F0405060708090AEA
:100240000B0C0D0E0F101112131415161718191A86
:100250001B1C1D2F3130232D350405060708090A04
:100260000B0C0D0E0F101112131415161718191A66
:100270001B1C1D2F3130354C1E001F00200021009B
:100280002200230024002500290014001A00080081
:10029000150017001C0018002B00040016000700B2
:1002A00009000A000B000D00E1001D001B00060004
:1002B0001900050011001000E000E300E20000005A
:1002C00000002C00000000005800630062004F0096
:1002D00050002252000000005B005A005900E50067
:1002E00038003700360000005E005D005C0028002A
:1002F00033000F000E000000610060005F002A0064
:100300004C00130012000C0057005600550054001A
:1003100061522700260000001E001F00200021005F
:100320002200230024002500290014001A000800E0
:10033000150017001C0018002B0004001600070011
:1003400009000A000B000D00E1001D001B00060063
:100350001900050011001000E000E300E2000000B9
:1003600000002C00000000004F0051005000E4008D
:10037000E700225200000000270252002602E5009A
:10038000380037003600000031023E0034002800FB
:1003900033000F000E000000310030002F002A0053
:1003A0004C00130012000C002E002D003500350209
:1003B0006152270026000000010001000100010039
:1003C0000100010001000100010001000100010025
:1003D00001000100010001003900010001000100DD
:1003E0000100010001000100010001000100010005
:1003F00001000100010001000100010001000000F6
:100400000000010000000000010001000100510097
:1004100052000100000000004E004D00A800010045
:10042000010001000100000001003E00AA000100DF
:1004300001000100010000004B004A00A90001007A
:10044000010001000100010001000100B2004600AE
:10045000010001000100000009025B00030100A08F
:10046000FA09040000010301010009211101000142
:10047000224400070581030800010904010002036A
:10048000000000092111010001222200070582035A
:1004900020000107050303200001090402000103F5
:1004A00000000009211101000122B60007058403A4
:1004B00020000112010002000000084355575301BB
:1004C0000001020001140353006800690067006125
:1004D000007700690072006500000022035400727A
:1004E00000610073006800200049006E0064007520
:1004F000007300740072006900650073000000045E
:100500000309040011241FBECFEFDAE0DEBFCDBF28
:1005100004B603FE18C080917E0290917F02A091E4
:100520008002B09181028730904BA740B04B59F4C4
:1005300010927E0210927F0210928002109281022D
:10054000E0E0F8E3099511E0A0E0B1E0E2EBFFE3C1
:1005500002C005900D92A436B107D9F722E0A4E6B7
:10056000B1E001C01D92AE37B207E1F70E94681AF0
:100570000C94851F0C94000081FF08C0469A82FFEE
:1005800007C0479A83FF06C08E9A08954698F7CF12
:100590004798F8CF8E980895482F20917A0290912D
:1005A000410257E0291302C080E0089530E0529FD5
:1005B000F001539FF00D1124EE5BFD4F8181681314
:1005C00006C08081481303C085818111EECF2F5F63
:1005D0003F4F2770E7CFE8EDF0E080818E7F80838A
:1005E0001092E2001092DA001092E100A0EEB0E06A
:1005F0008C9181608C9380818F77808319BCA7ED6B
:10060000B0E08C918E7F8C9380818F7E808310925E
:10061000120208952091E4003091E50095E6A901C9
:100620002091EC00822F817020FF06C08091E800AD
:1006300080FF06C080E008952091E80022FD1AC0E6
:1006400080913702882389F0853089F08091EB0012
:1006500085FD0FC02091E4003091E500421753075B
:10066000F9F29150E1F684E0089582E0089583E084
:10067000089581E008958091390287FF13C0809129
:10068000E80082FF06C08091E8008B778093E80045
:1006900004C0809137028111F2CF08958091370212
:1006A0008823D9F38091E80080FFF8CF8091E8009B
:1006B0008E77ECCF982F9093E900242F762F50E07F
:1006C000891731F07091EC002091ED005091F0000D
:1006D00021FD07C09F5F973071F78093E90081E0AB
:1006E00008953091EB003E7F3093EB003091ED00A8
:1006F0003D7F3093ED003091EB0031603093EB00A3
:100700007093EC002093ED005093F0002091EE00E8
:1007100027FDE0CF80E00895B0E0A0E0E2E9F3E05B
:100720000C94E51EC8EDD0E088818F7E8883E7EDCC
:10073000F0E080818160808384E082BF81E08093EB
:10074000120288818E7F888302EE10E0F801108209
:100750001092DA0081EEC82ED12CF6011082888129
:100760008F77888388818068888388818F7D88835C
:1007700019BC109237021092380210923602109271
:10078000350290EEE92EF12CF70180818B7F80837A
:1007900088818160888342E060E080E00E945A03A3
:1007A000F60180818E7F8083F80180818160808363
:1007B000808188608083F70180818E7F808388813B
:1007C00080618883CDB7DEB7E8E00C94011FFC019F
:1007D00080913F029091400286179707A0F0611523
:1007E000710529F49091E8009E779093E80090E0DD
:1007F0006115710551F4911108C08091E80082FFE4
:1008000034C080E00895BC01F2CF80913702882384
:10081000C1F18530C1F18091E80083FD30C0809145
:10082000E80082FDEACF8091E80080FFE1CF80916F
:10083000F3002091F200382F6115710519F028306E
:10084000310558F091E02830310509F090E0209111
:10085000E8002E772093E800CBCF81918093F100C0
:10086000615071092F5F3F4FE7CF80913702882396
:1008700041F0853041F08091E80083FFBECF81E0F8
:10088000089582E0089583E0089580911402089508
:100890009C014FB7F89480910C0290910D02A091A9
:1008A0000E02B0910F024FBF821B930B08952FB71A
:1008B000F89480910C0290910D02A0910E02B091DB
:1008C0000F022FBF0895A3E0B0E0E9E6F4E00C9436
:1008D000EB1E2091090230910A0228173907A1F076
:1008E00090930A0280930902E0910702F0910802B6
:1008F000309751F024E029839B838A830680F78117
:10090000E02DCE01019609952396E2E00C94071F95
:10091000A3E0B0E0EEE8F4E00C94EB1E20910502B9
:100920003091060228173907A1F0909306028093B0
:100930000502E0910702F0910802309751F023E0A0
:1009400029839B838A830680F781E02DCE0101965F
:1009500009952396E2E00C94071FE0910702F091BD
:100960000802309729F00190F081E02D0995089553
:1009700080E008950E9457049C01909101028091AB
:100980000202982B21F03093FE012093FD019091FB
:10099000030280910402982B21F03093FC012093F4
:1009A000FB01E0910702F0910802309749F082E0E4
:1009B0008093FF010480F581E02D8FEF91E0099590
:1009C00008958091FA0180FD16C081FD16C082FD58
:1009D00016C08091F9018823A1F0883280F428E0C4
:1009E000829FC001112468E270E00E94BA1E862F27
:1009F000672B39F0089582E0089584E0089588E037
:100A0000089581E008958091FA0180FD14C081FD70
:100A100014C082FD16C08091F801882381F08E31C8
:100A200080F420E5829FC00111246EE170E00E94F5
:100A3000BA1E862F089584E1089588E2089588E01B
:100A4000089580E50895282F35EB2303C001112474
:100A500097FF04C080589109892F089580589F4FAF
:100A6000FBCF80E00895F894E82FE295EF70F0E076
:100A700031A1282F2F7081E090E001C0880F2A95C6
:100A8000EAF7982F9095932391A392A1892B82A3A3
:100A9000789408959091100292FF10C041E0282FA1
:100AA0002471243009F040E031E0282F28712830EB
:100AB00009F030E0431711F02CE0822793FF10C0BB
:100AC00041E0282F2471243109F040E031E0282F43
:100AD0002871283109F030E0431711F02CE082270B
:100AE0003091110230FF10C051E0282F21712130C8
:100AF00009F050E041E0282F2871283009F040E04B
:100B0000541711F029E0822731FF10C041E0282F4F
:100B10002171213109F040E031E0282F287128317E
:100B200009F030E0431711F029E0822794FD877E19
:100B3000089582389105B9F1B0F48133910509F433
:100B40007DC048F48932910509F46DC08A3291055F
:100B500009F47BC008958533910509F45FC089339A
:100B6000910509F10895833E9105D9F138F4803E4D
:100B7000910529F1823E910579F10895863E91050E
:100B8000D9F1873E910509F43EC0843E910541F5B7
:100B90002091110221FF24C08091100284FD19C010
:100BA00087EE90E0089520911002237009F05AC05A
:100BB0002091110223FF14C089E290E00895209152
:100BC000100220FD38C03091110230FF09C024FF0F
:100BD00043C090E080E008952091100222FDF7CFFD
:100BE00008952091100222FD3AC03091110230FD8B
:100BF00039C024FFF5CFEDCF2091100223FFF0CFB5
:100C000024FDE7CFCDCF2091100223FD2EC03091DF
:100C1000110231FFEECF84EE90E008952091100292
:100C200025FFDECFC9CF2091100225FD21C02091E4
:100C3000110223FFD5CF89E390E0D2CF209110029B
:100C400026FFCECF8AE290E008952091100226FF81
:100C5000C7CF81E390E0089583EE90E0089582EE9F
:100C600090E0089580EE90E0089586EE90E008957B
:100C700085E390E008951F93CF93DF930E94990539
:100C8000EC01C11580E5D807F0F5C11580E4D8075F
:100C900008F09CC0C03ED10520F5CD3CD10508F040
:100CA00082C0C83AD10578F4C53AD10508F073C0BE
:100CB000C130D10519F1209709F1C430D105F0F404
:100CC000D0E0C0E01BC0C33CD105D0F7C85AD0E08B
:100CD000CC0FDD1FC45FDE4F0990D881C02DD464D6
:100CE0000DC0C11580E2D80708F0D1C0C11581E060
:100CF000D80708F05AC0C83ED10510F7CE01DF91E1
:100D0000CF911F910895C03682E5D80718F5C034F9
:100D100082E5D80708F06BC0C03282E5D80708F03A
:100D20005FC0C11582E5D80708F497C02C2F26951F
:100D3000269580E2289F900111248C2F8370C1E0BA
:100D4000D0E002C0CC0FDD1F8A95E2F7C22BD32B77
:100D5000DD68D4CFC03A82E5D80760F4C03882E5B8
:100D6000D80708F459C0CF71D0E0DC2FCC27C46F6E
:100D7000D06AC4CFC03C82E5D80708F462C0C03E48
:100D800082E5D80708F09CCFDC2FCC27CC27DF7179
:100D9000C06FD06AB3CFC55AD0E0C75FDE4FC881FD
:100DA000D0E0D064ABCFD065A9CF8D2F0E944A058B
:100DB000182FCE0199270E949905C12FD0E0DC2F72
:100DC000CC27CC27DF71C82BD92B98CFCE01992700
:100DD0000E949905CC27DF70C82BD92BD06A8ECF03
:100DE000CF71D0E0DC2FCC27C16FD06A87CF2C2FFA
:100DF00026952695277080E2289F900111248C2F3C
:100E00008370C1E0D0E002C0CC0FDD1F8A95E2F70D
:100E1000C22BD32BDC6872CF2C2F269526952770FA
:100E200080E2289F900111248C2F8370C1E0D0E0D4
:100E300002C0CC0FDD1F8A95E2F7C22BD32BDA68F4
:100E40005DCF8C2F8F710E944A05C82FD0E0DC2F18
:100E5000CC27CC27DF71D06251CF8C2F8F710E94AD
:100E60004A0555E0D695C7955A95E1F7CF70D0E081
:100E7000DC2FCC27282F30E084FF05C044E0220F70
:100E8000331F4A95E1F7C22BD32BD06937CF8D2F73
:100E90008F710E944A05182FCE0199270E9499054B
:100EA000C12FD0E0DC2FCC27CC27DF71C82BD92B6A
:100EB000D2CF80959091D00198239093D00108953E
:100EC000909108019923D1F09091100297FF16C0DC
:100ED000E82FE695E695E695EE31E0F4F0E0EA5984
:100EE000FE4F282F277081E090E001C0880F2A95DF
:100EF000EAF780959281892382830895E8E6F1E0FC
:100F00009191891303C0DF0111971C9291E0EE3695
:100F1000F907B1F70895909108019923C1F09091D4
:100F2000100297FF14C0E82FE695E695E695EE319E
:100F3000F8F4F0E0EA59FE4F877021E030E001C09C
:100F4000220F8A95EAF78281822B82830895A8E690
:100F5000B1E0EFEF90E02D91821751F0EF3F19F4DF
:100F6000211101C0E92F9F5F9630A9F7EF3F09F4E7
:100F700008950E2E000CFF0BEA59FE4FE6CF80912C
:100F80007A0290914102981301C008958F5F877093
:100F9000FACF9A3080F5883070F548E0949F900140
:100FA0001124820F932F911D682F677023E096956F
:100FB00087952A95E1F7FC01EE0FFF1FE80FF91F57
:100FC000E857FE4F50E040E080E0219130E0062EEF
:100FD00002C0369527950A94E2F721703327042E34
:100FE00001C0220F0A94EAF7822B4F5F5F4F433014
:100FF000510559F7089580E008959A3098F58830A2
:1010000088F548E0949F90011124820F932F911D41
:10101000282F277041E001C0440F2A95EAF723E00A
:10102000969587952A95E1F7FC01EE0FFF1FE80FD3
:10103000F91FE857FE4F90E080E070E05191DF012A
:1010400011979B01082E02C0369527950A94E2F766
:10105000217021952527242325272C930196833061
:10106000910561F70895CF93C82F0E94AD048C2F8E
:101070000E94BC02C093E101CF9108959091E101DB
:1010800021E030E0F90101C0EE0F8A95EAF7D901BD
:1010900002C0AA0FBB1F6A95E2F7EA2B01C0220F1C
:1010A0004A95EAF7892F8E23E81305C0292B822F52
:1010B0000E943308089520952923F9CF21E030E0DC
:1010C00001C0220F8A95EAF720958091E1018223E1
:1010D0000E94330808959091AD01809589238093F3
:1010E000AD01282F277069F4891759F090911102EA
:1010F00092FF07C08695869586950E945E0810929D
:10110000AD01089521E030E001C0220F8A95EAF791
:101110008091E101822B0E94330808958093E001C1
:101120000895662309F45DC08D3C41F40E940305D7
:101130008195809302020E94BA0408958E3C19F4AE
:101140000E940305F6CF8F3C31F40E940305819580
:1011500080930102F0CF803D19F40E940305F8CF7F
:10116000893D29F40E94E10480930302E4CF8A3D83
:1011700021F40E94E1048195F7CF8B3D31F40E9468
:10118000E104819580930402D6CF8C3D19F40E942E
:10119000E104F8CF9FE2980F983070F4815D990BCD
:1011A00021E030E001C0220F8A95EAF78091000229
:1011B000822B80930002BFCF8D3D31F48091FA01E4
:1011C00081608093FA01B7CF8E3D21F48091FA01BE
:1011D0008260F7CF8F3D09F0AECF8091FA01846035
:1011E000F0CF409101028D3C59F48091020287FFBB
:1011F0000DC01092020241110BC01092F80108C0FC
:101200008E3C81F48091020218169CF3442381F0F5
:101210008091030290910402892B09F08CCF1092E7
:10122000F90189CF8F3C49F447FFF0CF10920102BA
:10123000809102028111ECCFE0CF803D19F41416A9
:10124000ACF3E4CF90910302893D29F41916F4F62A
:1012500010920302DBCF8A3D19F497FFD7CFF8CF66
:10126000909104028B3D29F497FFD0CF1092040295
:10127000CDCF8C3D19F41916CCF3C8CF9FE2980F4F
:10128000983090F4815D990B21E030E0B90102C003
:10129000660F771F8A95E2F7CB0180959091000247
:1012A000892380930002B2CF8D3D31F48091FA0101
:1012B0008E7F8093FA01AACF8E3D21F48091FA01AE
:1012C0008D7FF7CF8F3D09F0A1CF8091FA018B7F01
:1012D000F0CFCF93C82F0E94AD048091E1010E940E
:1012E000BC02C1FF03C08D9ACF9108958D98FCCFA9
:1012F0000F931F93CF93DF938B01EA0190913702F5
:10130000943061F58093E9008FEF9091E80081506F
:1013100095FD06C095ED9A95F1F700008111F5CF86
:101320008091E80085FF1AC00E940A03811111C054
:101330008091E80085FD06C08091E8008E7780935B
:10134000E800F2CFF80181918F018093F10021979D
:1013500079F78091E8008E778093E800DF91CF9154
:101360001F910F91089543E050E0BC0184E00E947A
:101370007809089546E050E0BC0184E00E947809B5
:101380000895CF93DF93EC0180910801811111C082
:1013900048E050E0BE0181E00E94780980E2FE0151
:1013A000A5E1B2E001900D928A95E1F7DF91CF912E
:1013B00008958091100287FF05C040E284E050E06C
:1013C000BE01EACF48E081E0FACF81E08093E000FF
:1013D00080E28093D8001092C9008FE19EE40197CB
:1013E000F1F700C0000087E090EBDC0180937E0203
:1013F00090937F02A0938002B093810288E19CE0E9
:101400000FB6F894A895809360000FBE909360008B
:10141000FFCFCF93DF93C9EAD2E060E0CE010E9414
:10142000441F2196C11584E0D807B9F7DF91CF9109
:1014300008951F93CF93DF93122F8430E0F46A3026
:10144000D0F44830C0F490E1699FE001112450E0ED
:10145000440F551FC40FD51F90EA899FC00DD11DA1
:101460001124632FCE0189960E94441F612FCE0163
:101470008A960E94441FDF91CF911F910895B0E09A
:10148000A0E0E5E4FAE00C94E51E98E7E92E92E08E
:10149000F92ED12C8701C12C1CC04C2F83E021E0F8
:1014A00030E0D81641F0FE01EE0FFF1FE00FF11FF4
:1014B000859194919C016C2D8D2D0E94190A219685
:1014C000C830D10551F7C394005F1F4F8AE0C8169A
:1014D00019F0D0E0C0E0E1CFD39480EAE80EF11C2F
:1014E00084E0D812D7CFCDB7DEB7E8E00C94011F67
:1014F000CF93C82F6FEF811163E285E290E00E94E5
:10150000441F6FEFC11160E186E290E00E94441F2A
:101510006FEFC11165E287E290E00E94441FCF9116
:10152000089580E00E94780A60E088E290E00E94DE
:10153000441F0E943F0A0E94090A81E00E94780A23
:1015400008950F931F93CF93DF93843030F56A3063
:1015500020F5483010F520E1629F8001112450E011
:10156000440F551F040F151F30EA839F000D111DF6
:101570001124C80189960E94261FC82FD0E0DC2FB5
:10158000CC27C8018A960E94261F9E01282BC901DC
:10159000DF91CF911F910F91089590E080E0F8CFF7
:1015A000462F7A3040F4683030F4843020F4672FCE
:1015B0000E94A10A089590E080E00895CF92DF9202
:1015C000FF920F931F93CF93DF936C010091E10182
:1015D0008091E001082BC3E0D0E010E0FC2EC801B0
:1015E0000C2E02C0959587950A94E2F780FD0CC0F9
:1015F0002197A0F7F12C8F2DDF91CF911F910F91A3
:10160000FF90DF90CF900895B6018C2F0E94D00AF2
:101610000E943B06019761F3EECFCF93DF93EC017D
:101620000E94DE0ABE010E94D00A0E943B06DF91A2
:10163000CF910895FC0124812223C1F08081918102
:101640000E940D0B92959F70963091F058F4925F26
:101650009F70923058F4803F19F030F4883E30F497
:1016600081E008959A5FF4CF843FD1F380E008953C
:10167000883EB0F3813FD1F7F3CFA6E0B0E0E3E4DA
:10168000FBE00C94EA1E49835A8349815A819923CD
:10169000A1F0222391F0CA010E94DE0A182F682FC0
:1016A00089819A810E94FD0769817A81812F0E9438
:1016B000D00A2696E3E00C94061FCA010E94C907CF
:1016C000182FF2CF85E290E00E94261F833289F422
:1016D00086E290E00E94261F803159F487E290E074
:1016E0000E94261F91E0853209F090E0892F8170D9
:1016F000089580E0FCCF9091110292FB222720F9FF
:10170000281779F080FB92F99093110260911002F2
:101710007091110284E090E00E94621F82E00E94BA
:101720006B0808958091D0019091CF01892B80930F
:1017300066019091CE019923A1F0892B80936601D7
:10174000809108018823E1F18091100287FF38C061
:101750008EE1E8E6F1E090E08150A0F59111109261
:10176000CE0140E250E06EEA71E086E691E00E9430
:10177000781F892B21F180E2E6E6F1E0AEEAB1E0E4
:1017800001900D928A95E1F7E0910702F09108022D
:101790003097A9F080910801882359F080911002B8
:1017A00087FF07C0809166018093670186E0809380
:1017B00066010280F381E02D86E691E009950895A7
:1017C00086E0C7CF2191222339F29F5FC5CF1092C7
:1017D000D00180910801E8E6F1E0882329F18091A9
:1017E000100287FF21C08EE1DF011D928A95E9F783
:1017F00090E080E00E94880490E080E00E94630412
:101800001092CF010E94920B86E0EFEFF1E0DF0132
:101810001D928A95E9F71092F8011092F901109241
:10182000FA010E94BA04089586E0DECFAAE2B0E091
:10183000ECE1FCE00C94EA1E89E392E02091F100D7
:10184000DC012D93CD01B2E081349B07B9F7809183
:101850003A02833009F472C0B8F4813009F449C007
:10186000823009F4B3C08091E80083FF8BC280917D
:10187000390290913A029A3008F084C2E92FF0E0E0
:10188000E957F04E0C94CE1E8A3009F48EC08B308E
:1018900009F471C0893039F780913902813219F722
:1018A00080913D0290913E02009711F00297D9F687
:1018B0008091E800877F8093E8008091E80082FFB4
:1018C00038C09091F3008091F200029731F480913A
:1018D000F100813011F0863021F48091F100809385
:1018E00014028091E8008B778093E8000E943B030C
:1018F000BACF80913902813A09F0B5CF8091E800E2
:10190000877F8093E80080913D0290913E02892B71
:1019100061F460E285E192E070E00E94E70380916B
:10192000E8008B778093E8009ECF60E090E080E055
:10193000F3CF809137028111C0CF95CF80913902CA
:10194000813A09F090CF80913D0290913E02892B1F
:1019500009F089CF8091E800877F8093E80080912B
:10196000E80080FFFCCF809108018093F100809116
:10197000E8008E77B9CF80913902813209F073CFB8
:1019800080913D0290913E02892B09F06CCF8091AD
:10199000E800877F8093E8000E943B0380913B0230
:1019A000809308010E94E70B5ECF8091390281325B
:1019B00009F059CF8091E800877F8093E8000E946A
:1019C0003B0380913C02809313024DCF80913902FA
:1019D000813A09F048CF8091E800877F8093E80042
:1019E0008091E80080FFFCCF80911302BECF803849
:1019F00099F0823809F0C6C180913D028F7087301E
:101A000008F0C0C18093E9008091EB0085FB882736
:101A100080F91092E90006C080913502909136025B
:101A2000911182609091E800977F9093E8008093F5
:101A3000F1001092F1008091E8008E779FC1882319
:101A400009F48DC1823009F09DC180913B02811162
:101A500090C180913D028F702FEF280F263008F043
:101A600091C18093E9002091EB0020FF82C1933067
:101A700031F48091EB0080628093EB007AC1909109
:101A8000EB0090619093EB0021E030E001C0220F69
:101A90008A95EAF72093EA001092EA008091EB0021
:101AA0008860EACF81116EC110913B021F7780914F
:101AB000E3008078812B8093E3008091E800877FAA
:101AC0008093E8000E943B038091E80080FFFCCFF8
:101AD0008091E30080688093E30082E0111183E04D
:101AE000809337024FC18058823008F04BC120915B
:101AF0003B0230913C022C3DE3E03E07A1F583E040
:101B00008A838AE289834FB7F894DE01139620E036
:101B10003EE051E2E32FF0E050935700E49120FFC4
:101B200003C0E295EF703F5FEF708E2F90E0EA30D8
:101B3000C0F0C7968D939D932F5F243159F74FBF07
:101B40008091E800877F8093E8006AE270E0CE0130
:101B500001960E94E7038091E8008B778093E8006C
:101B600011C1C096E7CF80913D0290913E02432F74
:101B700055274330510509F44AC078F541305105E5
:101B800009F47AC08BE590E0E8E5F4E042305105D5
:101B900009F0F8C02091E800277F2093E800209109
:101BA0003F02309140028217930708F49C0140E005
:101BB0002115310509F065C0411163C08091E8002D
:101BC00082FDC9CF80913702882329F2853019F22E
:101BD0008091E80083FFF2CFBECF4132510509F476
:101BE0003CC04232510509F0CDC08330910508F068
:101BF000C9C0FC01EE0FFF1FE95AFE4F0190F081B2
:101C0000E02D8C5A9E4FDC018C9190E01AC0332756
:101C100021303105D1F02115310561F02230310537
:101C200009F0B0C0E5ECF4E0E4918E2F90E0E5EC33
:101C3000F4E007C0EFEFF4E0E4918E2F90E0EFEFD7
:101C4000F4E0009709F49EC0A5CFEBEDF4E0E49139
:101C50008E2F90E0EBEDF4E0F4CF8330910508F0A7
:101C600091C0880F991FFC01E35AFE4F0190F0814B
:101C7000E02D89E090E08ECF82E190E0E3EBF4E0AC
:101C800089CF80913702882309F465CF853009F424
:101C900062CF8091E80083FD5ECF8091E80082FDF5
:101CA0008DCF8091E80080FF83CF9091F3008091E9
:101CB000F2002115310519F08830910550F041E00E
:101CC000089709F040E08091E8008E778093E80063
:101CD0006FCF44914093F100319621503109019624
:101CE000E8CF803809F04EC08091E800877F80936C
:101CF000E800809138028093F1009DCE811142C0AE
:101D000010913B021230F0F58091E800877F8093BC
:101D1000E800109338020E943B03112311F084E085
:101D200005C08091E30087FDFACF81E08093370200
:101D300042E061EC81E00E945A0342E261EC84E0FF
:101D40000E945A0342E261EC82E00E945A0342E29E
:101D500060EC83E00E945A038091370213C08091A7
:101D60003B02813079F481E0933009F080E0809388
:101D700036021092E9008091E800877F8093E800A6
:101D80000E943B038091E80083FF0AC08091E80035
:101D9000877F8093E8008091EB0080628093EB0066
:101DA000AA96E3E00C94061F0E94E70B2FEF84E352
:101DB0009CE0215080409040E1F700C0000088E1A5
:101DC0009CE00FB6F894A895809360000FBE9093A6
:101DD0006000FFCF882321F00E9459070E94920BD8
:101DE0000895882339F09091D001982B9093D001D9
:101DF0000E94920B0895882309F456C0823879F422
:101E00000E94AD0481FF50C089E30E948B070E94AD
:101E1000920B89E30E9460070E94920B0895833819
:101E200059F40E94AD0480FF3FC083E50E948B07F8
:101E30000E94920B83E5EECF843859F40E94AD04E2
:101E400082FF32C087E40E948B070E94920B87E4D6
:101E5000E1CF9CEF980F913AE8F290E2980F98301A
:101E600050F4877091E001C0990F8A95EAF7892FA5
:101E70000E945907D1CF9BE5980F933028F490E04A
:101E800080E00E948804089598E5980F9B3128F41B
:101E900090E080E00E946304089593E3980F9331EB
:101EA00018F460E00E9491080895CF93C82F88230A
:101EB000C9F08238C9F40E94AD0481FD13C089E3E2
:101EC0000E948B070E94920B2FEF87EE93E0215028
:101ED00080409040E1F700C0000089E30E94600765
:101EE0000E94920BCF9108958338A1F40E94AD0413
:101EF00080FDF8CF83E50E948B070E94920B2FEFA5
:101F000081EE94E0215080409040E1F700C0000055
:101F100083E5E4CF8438A1F40E94AD0482FDE2CFD2
:101F200087E40E948B070E94920B2FEF81EE94E0D2
:101F3000215080409040E1F700C0000087E4CECF00
:101F40008CEF8C0F813A88F580910801882301F18C
:101F50008091100287FF1CC0EC2FE695E695E69570
:101F6000F0E0EA59FE4F828190E04C2F477021E06B
:101F700030E002C0220F331F4A95E2F782239323F9
:101F8000892B79F08C2F0E9460070E94920B09C068
:101F9000E8E6F1E08191C817A9F321E0EE36F207F7
:101FA000C9F78C2F0E948B079BCF80E28C0F883063
:101FB00068F4C77021E030E001C0220FCA95EAF74B
:101FC0008091D001822B8093D0018ACFEBE5EC0F7A
:101FD000E33040F4F0E0E75FFE4F808190E00E9444
:101FE000880480CFE8E5EC0FEB3150F4F0E0EE0F21
:101FF000FF1FE45FFE4F808191810E94630472CFD6
:1020000083E38C0F833108F06DCF61E08C2F0E9449
:10201000910868CF1F93CF93DF93182FD0E0C0E0D3
:10202000893311F4C0E5D0E0812F0E94550F20972D
:1020300039F4812F0E94FB0EDF91CF911F910895FB
:102040008FE99FE00197F1F700C000002197EFCFE3
:102050000F931F93CF93DF93C62FD42F022FFC0132
:1020600085818823A9F060937D020E945704909394
:102070007C0280937B02C77081E001C0880FCA9503
:10208000EAF70E94F10EDF91CF911F910F91089511
:1020900080917D02681332C080917B0290917C0216
:1020A0000E944804883C910548F510E21D0FCD17A9
:1020B000B9F080E28C0F883040F4C77081E001C035
:1020C000880FCA95EAF70E94EA0E183048F481E0BA
:1020D0009D2F977001C0880F9A95EAF70E94F10E24
:1020E000802F0E940A10183070F6D77081E001C06E
:1020F000880FDA95EAF70E94EA0EC5CFC77081E033
:1021000001C0880FCA95EAF7F6CFA8E0B0E0EBE887
:10211000F0E10C94DD1E8C01DC0114968C91149777
:10212000882309F4B8C021E04C9111965C91119775
:1021300012966C91129713967C91139715969C9119
:102140000E943D0B7C01F8018581882309F43CC184
:10215000C70197578038910508F004C5FFE0FE15C8
:1021600008F489C08FEF93E00E94261F811183C07D
:1021700069EAA62E62E0B62EE11047C0FE01339652
:1021800086E0DF011D928A95E9F75AE0452E750138
:10219000BFEFEB1AFB0AC5010E94261F89831A8232
:1021A000882309F468C0813009F079C06501E2E054
:1021B000CE0ED11CC7010E94261F8A83882309F4F2
:1021C0005AC09FEF980F933070F5F3E0AF0EB11C3B
:1021D000C6010E94261F8B83882309F44CC01C82F1
:1021E000DE0111967D01F7012081222381F2213049
:1021F00009F095C091818281913009F052C0F2E0DE
:10220000EF0EF11C0E940A1053C0A11424E0B20684
:1022100091F1C5010E94261F811101C0EA943FEF90
:10222000A31AB30AA9CF56018430D1F642E0E42EB6
:10223000F12C56012FEFA21AB20AC6010E94261FE6
:10224000E1E0F0E0EC0FFD1FEE0DFF1D8083882321
:1022500091F08C3741F4E2E0F0E0EC0FFD1FEE0D61
:10226000FF1D1082BDCF3FEFE31AF30A650187E03F
:10227000E816F104F1F68091AD01877061F0D801A4
:1022800015968C91882339F08091110282FF03C04A
:1022900082E00E946B082896E0E10C94F91E570139
:1022A0009FCF923049F422E0E20EF11C0E94550FBC
:1022B000EFEFEE1AFE0A97CF933031F432E0E30EDF
:1022C000F11C0E94FB0EF4CF943021F08FEFE81A3E
:1022D000F80AEECF92E0E90EF11C30E020E0B70101
:1022E0006F5F7F4FD70111964C918053990B8A30C5
:1022F000910550F021503109D8F2EFE9FFE0319714
:10230000F1F700C00000F6CF429EF001439EF00DB1
:1023100011249C012E0F3F1F842F7B01E0CFE22F61
:10232000F0E0E850FE4F5490822F86958695869572
:1023300090E0FC01E851FE4F64902770712C022E52
:1023400002C0759467940A94E2F731E0632277241F
:10235000FC01E852FE4F8490912C022E02C095940D
:1023600087940A94E2F7A1E08A229924FC01E853B9
:10237000FE4FC490D12C02C0D594C7942A95E2F7A1
:10238000B1E0CB22DD246114710419F081EE0E94CA
:10239000550F8114910419F086EE0E94550F852D7A
:1023A0000E940A108114910419F086EE0E94FB0E1F
:1023B0006114710419F081EE0E94FB0EC114D10466
:1023C00009F476CF8CE21ECFF701E851FC47E730E5
:1023D000F10508F0BAC3EF56F04E0C94CE1E26E27B
:1023E00041EE61EEC8010E94281045CF27E245EE7C
:1023F00065EEF8CF26E241EE60EEF4CF27E245EE3F
:1024000064EEF0CF26E241EE62EEECCF27E245EE3D
:1024100066EEE8CF28E241E0EBCF809110028160C8
:102420008093100295C08091110288608093110200
:102430008FC0809110028260F3CF8091100284607F
:10244000EFCF809110028860EBCF80911102816004
:10245000EDCF809111028260E9CF809110028061FE
:10246000DFCF809110028062DBCF80911002806408
:10247000D7CF0E94E70B809110028068D1CF809166
:1024800010028C60CDCF809111028360CFCF8091FC
:1024900010028E7FC5CF80911102877FC7CF8091B8
:1024A00010028D7FBDCF809110028B7FB9CF8091BC
:1024B0001002877FB5CF809111028E7FB7CF8091B8
:1024C00011028D7FB3CF809110028F7EA9CF8091B2
:1024D00010028F7DA5CF809110028F7BA1CF0E942B
:1024E000E70B809110028F779BCF80911002837F42
:1024F00097CF809111028C7F99CF8091100282FB3F
:10250000992790F921E0922790FB82F990FB83F9BB
:1025100087CF80911102982F909591708E7F892B93
:1025200090FB81F983CF90911002892F8F7B96FFCA
:10253000806476CF0E94E70B90911002892F97FB61
:1025400087F980586DCF61E08EE090E00E94441FD3
:10255000609110027091110284E090E00E94621F6D
:102560000E94E70B88CE60E0EFCF90911002892F98
:102570008F7E94FF806154CF90911002892F8E7FBF
:1025800090FF81604DCF90911102892F877F93FF3B
:1025900088604CCF85E3D4C285E3E1C2F7E7EF164C
:1025A000FCE7FF0609F46AC028E7E2162CE7F2060A
:1025B00009F471C033E0E3163CE7F30609F48CC07C
:1025C00008F06BC0E1149CE7F90609F478C0A1E0BB
:1025D000EA16ACE7FA0609F485C0F8018581E080C7
:1025E000F180882309F48CC0C7010E94DE0AD82E2E
:1025F000682FC7010E94FD07B7018D2D0E94D00AE8
:102600000E943B067C01882ED8011596AC90159748
:1026100016969C9092943FE093228091AD01877032
:10262000F1F0DA2CAA20E1F08F2D807F803451F078
:1026300080E28E0D883098F0911004C08F2D807E3E
:10264000803269F08091110282FF09C082E00E940D
:102650006B088091AD018770DD24D3948111D12C5A
:10266000CF2CC2942FE0C222BBE0BC1508F4B1C04D
:10267000EC2DF0E0E856F04E0C94CE1E81E00E9466
:10268000820843E062E081E00E943E08F4CD81E0F0
:102690000E945E08F6CF82E0F2CFBBE5EB16BCE706
:1026A000FB0661F1ECE5EE16ECE7FE06E9F0FAE573
:1026B000EF16FCE7FF0609F090CF81E01CC00E94F6
:1026C000E70B2FEF34E38CE0215030408040E1F7FE
:1026D00000C000000E94E5096FEF7FEF90E080E00E
:1026E0000E94621F0E94D40E8091110282FB8827F3
:1026F00080F991E089270E947B0B6FCF80E0FBCFB0
:10270000C7010E94C907D82E77CFEF2DEF70BE2EDC
:102710008F2D807F19F0B29490EFB922AA20B9F0E2
:10272000BB2069F080E28E0D883010F0811009C066
:102730008091D001B82AB092D0010E94920B8E2DC8
:1027400046C08091CF01B82AB092CF01F6CF8E2D2E
:102750000E94FB0EBB20E9F180E28E0D883010F064
:10276000811004C08B2D0E94590706C0B09480913F
:10277000CF01B822B092CF010E94920B2AC0FF2D48
:10278000FF70BF2E8F2D807F803219F0B29480EFC2
:10279000B822882059F021E0821609F485C0AA20C9
:1027A00009F491C0992009F452C0C9CF8091110257
:1027B00082FD49C0AA2009F440C0BB2039F08091B5
:1027C000D0018B298093D0010E94920B80E00E945F
:1027D000550FAC2DA850BB0B149720F40E94AD04EC
:1027E0000E946909DD20A9F08091AD0180FD11C032
:1027F000F80115828695869586950E948208C80103
:102800000E9485108091AD018695869586950E94DF
:102810005E0820E0D8014C9111965C9111971296B8
:102820006C91129713967C91139714968C91149730
:1028300015969C910E943D0B2ECD80E00E94FB0ED0
:10284000BB2039F28FCFAA20A1F0911004C08B2DAC
:102850000E94F10EBECF31E09312BBCF8091CE012A
:102860009B2D9823B91609F4B4CF8B298093CE0100
:10287000B0CF9110AECF8B2D0E94EA0E9091CE0179
:102880008B2D892329F08B2D809589238093CE0170
:10289000909187018B2D892309F49BCF8B2D8095F7
:1028A00089238093870195CFAA2029F085E0891597
:1028B00008F48FCFCCCF94E0991508F48ACF8B2DF4
:1028C0000E94EA0E86CF9920D1F3A9E38A1209C0AB
:1028D000BFEFE7EEF3E0B150E040F040E1F700C0B9
:1028E00000008E2D0E94FB0E74CF8F2D869586954D
:1028F000837061F0813009F06CCFC7019370A11033
:1029000002C080E090E00E94630463CFC70193702F
:10291000A11002C080E090E00E9488045ACF6A2D86
:102920008E2D0E94910855CF8F2D837091F5A110A7
:1029300050CF4E2D429546954770440F440F8E2D33
:102940008F70042E01C0880F0A94EAF72E2D207193
:10295000E4FE07C02FE030E001C0220F4A95EAF7FD
:1029600020953F2D369536953370323069F050F40E
:102970004091E001313029F0822B84230E948E089F
:1029800028CF842B822BFACF282B8091E00182273D
:10299000F5CF8695AA2011F08F2D8170882309F438
:1029A00018CF4E2D429546954770440F440F8E2DFB
:1029B0008F70042E01C0880F0A94EAF72E2D207123
:1029C000E4FE07C02FE030E001C0220F4A95EAF78D
:1029D00020953F2D369536953370323069F050F49E
:1029E0004091E101313029F0822B84230E94330889
:1029F000F0CE842B822BFACF282B8091E101822705
:102A0000F5CF2F2D2F70F22EAA2029F0822F0E94B1
:102A100082088E2D1DCF8E2D0E94EA0E8F2D0E94D2
:102A20005E08D7CE8E2D32EF8316B1F1381570F0D7
:102A300090EF8916D1F0A1EF8A1691F0AA2009F43F
:102A40005EC091107CCE8F2D8F712AC0B3EF8B1694
:102A500051F1E4EF8E12F2CF8091110282FD2FC06E
:102A60008F2D8F71AA20D9F21BC0AA2081F0F4E02B
:102A7000F91508F4AECE2F2D2F7181E090E001C042
:102A8000880F2A95EAF79091E1018927AFCF25E0D9
:102A9000291508F49ECEEFCF8F2D8F71A110BFCFD7
:102AA0000E94820896CE80E0AA2009F49FCF9F2D35
:102AB0009F7181E001C0880F9A95EAF797CFAA200D
:102AC00099F03F2D3F71F32E832F0E948208809151
:102AD000110282FF07C0A8E0FA9EC00111248360A2
:102AE0008093AD018F2DDCCF81E00E946B08B1E0B7
:102AF000B91508F06ECE82E00E946B086ACE99206C
:102B000059F0893309F0EDCEEFEFF7EE23E0E15015
:102B1000F0402040E1F7E3CE8F2D8F7180CFB6E1FA
:102B2000EB16BCE7FB0609F039CD8091D0018A7A1B
:102B300091E009F490E09093860181112BCD89E218
:102B40000E948B070E94920B96CBE6E1EE16ECE713
:102B5000FE0641F58091860181111ECD89E20E9419
:102B60006007F0CFF701E851FC47E730F10508F4C2
:102B700032CC10927D02C7019057839780F684E093
:102B800090E00E942E1F9093110280931002F70193
:102B9000E150F047E232F10508F03FCCEC55F04E41
:102BA0000C94CE1EF7E7EF16FCE7FF0609F46FCD95
:102BB00082E028E7E2162CE7F20609F469CD0DCD94
:102BC000CF93DF938091AC01807F09F04DC080915D
:102BD000AB01882309F448C0E0917A025091410288
:102BE000C091A701D091A6016091A8017091A9019F
:102BF00047E05E17C9F18E2F90E0E49FF0011124A9
:102C0000EE5BFD4F2481222391F1489FF001499F03
:102C1000F00D1124DF01AE5BBD4F11962C91119781
:102C20002C1325C02C912D1322C015962C9115978D
:102C300021111DC012962D913C91261B370B283C6B
:102C40003105A8F48091AC018F7080618093AC0154
:102C5000E85BFD4F80818F708061808386EA91E020
:102C60000E9485100E94BF07DF91CF910895FC015B
:102C70003196E770BECFA4E1B0E0E1E4F6E10C9458
:102C8000E11E8C0186E0F801DE011F9601900D9295
:102C90008A95E1F7F8018481E58096EAA92E91E012
:102CA000B92E9091AA01911128C0882319F1EE2024
:102CB000F1F0C8010E941A0BF82E8823C1F087E0BA
:102CC000F801D50101900D928A95E1F78091AA0152
:102CD000813031F48091A6019091A7010E940D0BE3
:102CE0000E94E0158F2D6496ECE00C94FD1EC80147
:102CF0000E948510FF24F394F5CFD080C18082809C
:102D00009380F090AB012091A8013091A901A4011A
:102D1000421B530BFF2009F4D9C0483C510508F071
:102D200092C08823F9F29091A7018091AC01282FDD
:102D3000207F09F056C0C91214C09091A601D91283
:102D400010C0E11048C08F7080618093AC0186EAAA
:102D500091E00E9485108091AC01F8018683F12CEE
:102D6000C1CFE11038C06C2D8D2D0E94CC026C2D8E
:102D70008D2D0E94CC02E82E8111F1CFDF86C88A0A
:102D80008F8598890E940D0B292F22952F70243052
:102D900058F49F70223088F0992399F0F8019681B9
:102DA000907F79F4FE2C9ECF2A5F2F70223068F03E
:102DB000C8010E948510EF2CF5CF992311F08823CC
:102DC00089F3805E883070F3F3CF803F58F3815FE2
:102DD000833070F7E7CF8091AC0181608093AC01C4
:102DE000BECFC91207C09091A601D91203C0EE2030
:102DF00009F48DC0C8010E941A0B882309F477CF0B
:102E0000EE2009F474CF8091AC01803288F02091DB
:102E1000A6013091A701398728879B868A869091E1
:102E2000AA019C871D868E87CE0108960E94851078
:102E300087E0F801A6EAB1E001900D928A95E1F7EA
:102E40000E94E01557CF9091AC01292F207F51F4BB
:102E500086EA91E00E94851087E0F50111928A953B
:102E6000E9F77DCF882309F43DCF8091A7018C112C
:102E700010C08091A601D8120CC0E1100AC0968340
:102E8000C8010E94851087E0F50111928A95E9F743
:102E900029CFC8010E941A0B882309F428CFEE20FD
:102EA00009F425CF8091AC01803210F22091A60167
:102EB0003091A7013A8329839C828B829091AA0149
:102EC0009D831E828F83CE010196B0CF483C510571
:102ED000D0F6882309F40ECFFE2CEE2009F407CF9C
:102EE0008091A7018C1120C08091A601D8121CC02E
:102EF0008091AC0180FD0FC0982F907F61F0868398
:102F0000903F31F0982F907F905F8F70892B868350
:102F1000C8010E94851087E0F801A6EAB1E001909F
:102F20000D928A95E1F7DECEC8010E941A0B81113D
:102F30007FCF8091AC0181608093AC01C8010E9479
:102F40008510D0CEABE1B0E0E8EAF7E10C94E91EE1
:102F50004E8B5F8B688F798F8A8F9B8F192F911182
:102F60001092CF011D8A86E0FE017696DE011F9643
:102F700001900D928A95E1F70A8D002341F021E03E
:102F80004F85588969897A89C8010E943D0B0B8B4E
:102F90001C8B87E0FE013F96DE01189601900D9292
:102FA0008A95E1F7CE0108960E943B1681110CC06C
:102FB00087E0FE013896DE01119601900D928A9508
:102FC000E1F78C8581110BC017E080917A02909116
:102FD0004102891331C06B96E4E00C94051F2091E7
:102FE000410230E0C90101968770992740917A0229
:102FF0004817190699F097E0929FD001939FB00D62
:103000001124AE5BBD4FFE01319601900D929A9551
:10301000E1F7809341020E94BF07D6CF0E94E70BE1
:103020001092410210927A0287E0E6EAF1E0DF01B5
:103030001D928A95E9F7C8CF819FC00111248E5B4C
:103040009D4F0E943B16882331F280917A0290E0D6
:1030500001968770992780937A02B7CFA6E0B0E0F7
:10306000E4E3F8E10C94E91E0E9457048C0180917E
:10307000D1019091D2018017910781F019821A82B3
:103080000E945704682F49815A81792F80E090E08F
:103090000E94A2171093D2010093D1012696E4E07A
:1030A0000C94051FAAE0B0E0E8E5F8E10C94E21EFC
:1030B0008E010F5F1F4F8AE0F80111928A95E9F7A0
:1030C00082E4C82E81E0D82EF12CE12CAA24A3940E
:1030D000B12CF60181916F018F3F09F443C0F89440
:1030E000E82FE295EF70F0E021A18F70A50102C0FA
:1030F000440F551F8A95E2F7CA01922F982B91A38E
:1031000092A18095892382A3789400C0ECE4F1E039
:10311000912C31E021912F3F09F465C0A22FA29597
:10312000AF70B0E090968C9190E02F7002C09595B2
:1031300087952A95E2F780FD56C0832F982A330F92
:1031400051E0E435F50731F7F601319780818F3F83
:1031500011F00E94330580EA8A95F1F7F801EE0D2F
:10316000FF1D9082EFEFEE1AFE0AFAE0EF16F1046F
:1031700009F0AFCF4AE050E0B80186ED91E00E943F
:10318000781F892B91F18AE0F801A6EDB1E001905A
:103190000D928A95E1F781E08093D5010E94570452
:1031A0009093D4018093D3018091D3019091D40165
:1031B0000E9448040597E8F04AE050E066ED71E0AF
:1031C0008EEE91E00E94781F892BC1F08AE0E6ED37
:1031D000F1E0AEEEB1E001900D928A95E1F781E069
:1031E0001092D50107C080E0A9CF8091D50181114F
:1031F000DBCF80E02A96EBE00C94FE1E80E0F0CF5F
:103200001F920F920FB60F9211242F933F934F935B
:103210005F936F937F938F939F93AF93BF93CF935E
:10322000DF93EF93FF93D091E900DF708091EC0082
:10323000C82FC17080FDC0E81092E9008091F000B5
:10324000877F8093F00078940E94160C1092E9001A
:103250008091F00088608093F000CD2BCF70C093F8
:10326000E900FF91EF91DF91CF91BF91AF919F91D5
:103270008F917F916F915F914F913F912F910F901F
:103280000FBE0F901F9018951F920F920FB60F92BE
:1032900011242F933F934F935F936F937F938F935B
:1032A0009F93AF93BF93EF93FF938091E10082FFD1
:1032B00009C08091E20082FF05C08091E1008B7F10
:1032C0008093E1008091DA0080FF24C08091D800D3
:1032D00080FF20C08091DA008E7F8093DA00809199
:1032E000D90080FF9DC080E189BD82E189BD09B41C
:1032F00000FEFDCF81E080933702809112028111A0
:1033000009C00E94EB020E948C038091E20084605D
:103310008093E2008091E10080FF17C08091E2007D
:1033200080FF13C08091E2008E7F8093E200809145
:10333000E20080618093E2008091D80080628093F7
:10334000D80019BC85E0809337028091E10084FFAA
:103350002BC08091E20084FF27C080E189BD82E11B
:1033600089BD89B5982F917080FFFBCF8091D800DF
:103370008F7D8093D8008091E1008F7E8093E10063
:103380008091E2008F7E8093E2008091E200816074
:103390008093E20080913802882309F447C084E0DA
:1033A00080933702809137028091E10083FF27C02C
:1033B0008091E20083FF23C08091E100877F8093AA
:1033C000E10082E080933702109238028091E100A0
:1033D0008E7F8093E1008091E2008E7F8093E200F7
:1033E0008091E20080618093E20042E060E080E052
:1033F0000E945A038091F00088608093F000FF9152
:10340000EF91BF91AF919F918F917F916F915F915C
:103410004F913F912F910F900FBE0F901F901895D5
:1034200019BC109237021092120274CF8091E300FF
:1034300087FD93E090933702B5CF78941F921FB623
:103440001F9211248F939F93AF93BF9380910C028F
:1034500090910D02A0910E02B0910F020196A11D54
:10346000B11D80930C0290930D02A0930E02B093B5
:103470000F02BF91AF919F918F911F901FBE1F9020
:1034800018951F921FB61F9211248F939F93AF938D
:10349000BF9380910B02811113C080910C02909117
:1034A0000D02A0910E02B0910F024196A11DB11D17
:1034B00080930C0290930D02A0930E02B0930F0222
:1034C000BF91AF919F918F911F901FBE1F90189534
:1034D000CDB7DEB7A6970FB6F894DEBF0FBECDBF4F
:1034E00085B7806885BF85B7806885BF84B7877FCB
:1034F00084BF0FB6F894A89580916000886180938E
:103500006000109260000FBE80E890E00FB6F89463
:1035100080936100909361000FBE81E395E09093EA
:103520006501809364010E94EB020E948C038091EC
:10353000E20084608093E2007894809137028823CF
:10354000A1F01091E9001F709091EC00892F81701B
:1035500090FD80E8182B1092E9008091E80083FD2F
:103560000E94160C1F701093E90082E084BD93E066
:1035700095BD9AEF97BD80936E000E94620B8111FA
:1035800002C00E94910A02E411E05CE4E52E51E0E1
:10359000F52ED8018D918D018F3F11F00E943305DA
:1035A000E016F106B1F70CE411E0F80181918F010A
:1035B0008F3F11F00E943305F1E004351F07A9F792
:1035C0008AE0EEEEF1E0DF01282F1D922A95E9F75F
:1035D000E6EDF1E0DF011D928A95E9F790E080E0E9
:1035E0000E942E1F863E9E4F21F40E94620B811185
:1035F00067C066EE7EEF90E080E00E94621F60E0B0
:1036000082E090E00E94441F60E083E090E00E942E
:10361000441F1092E00160E074E184E090E00E94B9
:10362000621F60E086E090E00E94441F6FEF87E039
:1036300090E00E94441F40E050E0BA0188E090E032
:103640000E94561F60E084E290E00E94441F60E008
:1036500087E190E00E94441F60E08CE090E00E94CF
:10366000441F60E08DE090E00E94441F19821A829E
:103670001B821C821D821E821F82188648E050E039
:1036800068E170E0CE0101960E94341F40E050E0F6
:10369000BA0180E290E00E94561F80E00E94780A02
:1036A0000E94910A40E050E0BA018FE090E00E9451
:1036B000561F40E050E0BA0183E190E00E94561F9F
:1036C00082E090E00E94261F8093E20184E090E077
:1036D0000E942E1F90931102809310020E94521894
:1036E000EFEFF6E721E0E150F0402040E1F700C0C5
:1036F00000000E9452188091EE0180FF08C06FEF19
:103700007FEF90E080E00E94621F0E94E50983E065
:1037100090E00E94261F0E948E081091E1010E94F5
:10372000AD04812F0E94BC023E9A46983F9A47986A
:10373000869A8E980E94AD048091E1010E94BC029D
:1037400080E091E0909308028093070228E1C22E66
:10375000D12C30E4632E40E1E42EFF24F39477244F
:1037600073948091370212E1853009F486C00E947B
:10377000521803EE11E09EEEA92E91E0B92ED5016C
:10378000F80191918D9121E0ED3EF20709F481C09D
:103790009817B9F3912CD5018D905D01F801319006
:1037A0008F01381419F13824512C44244394832D6B
:1037B0008421A1F059A29AA20E9457049CA38BA332
:1037C0007DA291E0882D842109F490E09EA349A177
:1037D0005AA16BA17CA18DA10E94A2175394440C05
:1037E000F8E05F12E4CFF8013197808293942AE0E9
:1037F0009212D1CF8FB7F89440910C0250910D02E4
:1038000060910E0270910F028FBF47C08091370206
:10381000843021F180E00E94690910920B020FB6FA
:10382000F894A895C09260000FBE6092600083B7C4
:10383000817F846083BF83B7816083BF78948895DC
:1038400083B78E7F83BF0FB6F894A89580916000F0
:10385000886180936000109260000FBE80913602F4
:10386000882359F00E945218EEEEF1E08191811107
:1038700053C281E0E83FF807C9F7809137028530ED
:1038800009F4C4CF0E94E70B0E94AD040E946909AD
:103890006ECF98137FCF0E942E1886E0EFEFF1E0F5
:1038A000DE01119601900D928A95E1F79090000249
:1038B0001091010200910202A0900302B090040254
:1038C000109201021092020210920302109204025E
:1038D000812F802B09F445C08091FD019091FE015C
:1038E0000E9448049C019091F801992309F43DC27B
:1038F00025313105B0F19F3F19F09F5F9093F8019A
:10390000112359F00E9403059FEF11160CF491E06A
:10391000899F802D112480930102002359F00E9479
:10392000030591E010160CF09FEF899F802D112464
:103930008093020280910102882399F08090020214
:10394000882079F00E942305882309F4B5C080936C
:103950000102882D0E942305882309F4B0C08093BA
:1039600002028A2D8B2909F445C08091FB019091B8
:10397000FC010E9448049C019091F901992309F4EB
:10398000EFC121353105B0F19F3F19F09F5F909352
:10399000F901AA2059F00E94E1049FEF1A140CF4D7
:1039A00091E0899F802D112480930302BB2059F060
:1039B0000E94E10491E01B140CF09FEF899F802D81
:1039C00011248093040280910302882399F0A0902F
:1039D0000402AA2079F00E942305882309F472C00A
:1039E000809303028A2D0E942305882309F46DC069
:1039F0008093040280910002981217C08091010206
:103A0000882311F0181311C020910202222311F013
:103A100020130BC090910402992311F09B1105C053
:103A200030910302332309F48DC10E94BA0486E069
:103A3000FE013196AFEFB1E001900D928A95E1F76A
:103A40000E94AD049091ED01891779F08093ED010A
:103A50009FB7F89440910C0250910D0260910E02B4
:103A600070910F029FBF0E946909809137028430D4
:103A700009F077CE83E08093E9008091E80082FF2F
:103A800070CE8091E80090E085FF05C00E940A0397
:103A90008823F1F091E08091E8008B778093E80033
:103AA000992309F45ECEE981E150E331D0F5F0E0ED
:103AB000EA53F04E0C94CE1EF09201024ACFF092DF
:103AC00002024FCFF09203028DCFF092040292CF08
:103AD00080E2A82EB12C8E010F5F1F4F8091E8006D
:103AE00085FD0AC08091E8008B778093E8000E94F2
:103AF0000A03882399F3CECF8091F100D8018D93EA
:103B00008D01B1E0AB1AB10849F7C4CF1A828CE03D
:103B10008B8324C08A81823009F419C128F4813052
:103B200061F08FEF89831AC0833009F18430C9F7BF
:103B30001B821C821D821E8211C02FB7F8946091D7
:103B40000C0270910D0280910E0290910F022FBF16
:103B50000E94D41E6B837C838D839E8340E250E061
:103B6000BE016F5F7F4F82E00E947809FACD2B8102
:103B7000822F90E0FE013496245E8A30910570F722
:103B8000DC01A251BE4F3C91319301962813F5CF31
:103B9000E5CF8A81823019F0853001F3C2CF6B8185
:103BA0007C818D819E810E94D41E88E290E00E94DB
:103BB000441FD4CF4C816B818A810E94A10A98272F
:103BC000892798279E838D83C9CF2D813E813227F7
:103BD000232732274C816B818A810E94190ABECF2C
:103BE0000E943F0ABBCFEA82B9CFFA8287E590CF25
:103BF0000A811B81102701271027FE0131965F01E2
:103C00008C80CF01880D911D4C01C80187559D4FB7
:103C10008A149B0409F4A2CF0735A1E01A0750F4D7
:103C20000E94261FF50184830F5F1F4FBFEFAB1A61
:103C3000BB0AEBCFD50114961C92F6CF0A811B81EB
:103C4000102701271027FE0131964F01AC80A00EEE
:103C5000B12EB11CC80187559D4FA016B10609F4BD
:103C60007DCF0735F1E01F0728F4D40114966C913D
:103C70000E94441FBFEF8B1A9B0A0F5F1F4FEACFB2
:103C80000E94090A6BCF84E08A8368CF0A811B8176
:103C9000102701271027FE0131965F018C80CF018C
:103CA000880D911D4C01C80189968A149B0409F462
:103CB00055CF0038A2E01A0750F40E94261FF501E4
:103CC00084830F5F1F4FBFEFAB1ABB0AECCFD50148
:103CD00014961C92F6CF0A811B811027012710270A
:103CE000FE0131964F01AC80A00EB12EB11CC8016F
:103CF0008996A016B10609F431CF0038F2E01F070B
:103D000028F4D40114966C910E94441FBFEF8B1AC3
:103D10009B0A0F5F1F4FEBCFE9BC19BD09B400FE32
:103D2000FDCF8091D8008F7D8093D8008091E000F6
:103D300082608093E0008091E00081FDFCCF0E94D2
:103D4000E70B9BCD822B892B09F471CE6ECE88E2D6
:103D500090E00E94261F1B821C821D828E83FECE55
:103D60002B30310508F012CE45CE2B30310508F04E
:103D7000C4CDF7CD97FB072E16F4009407D077FD3E
:103D800009D00E94121F07FC05D03EF49095819542
:103D90009F4F0895709561957F4F0895EE0FFF1F17
:103DA0000590F491E02D09946927962769277827D3
:103DB0008727782708952F923F924F925F926F92B4
:103DC0007F928F929F92AF92BF92CF92DF92EF92AB
:103DD000FF920F931F93CF93DF93CDB7DEB7CA1B2C
:103DE000DB0B0FB6F894DEBF0FBECDBF09942A8857
:103DF000398848885F846E847D848C849B84AA84FF
:103E0000B984C884DF80EE80FD800C811B81AA818B
:103E1000B981CE0FD11D0FB6F894DEBF0FBECDBF56
:103E2000ED010895AA1BBB1B51E107C0AA1FBB1FD0
:103E3000A617B70710F0A61BB70B881F991F5A9536
:103E4000A9F780959095BC01CD010895F999FECF11
:103E500092BD81BDF89A992780B50895A8E1B0E098
:103E600042E050E00C946A1FDC01A40FB51F4150E2
:103E7000504048F0CB01840F951F2E910E94451FA2
:103E800041505040D0F70895262FF999FECF92BDAA
:103E900081BDF89A019700B4021639F01FBA20BD0F
:103EA0000FB6F894FA9AF99A0FBE08950396272F41
:103EB0000E94451F0E94441F252F0E94451F242F4A
:103EC0000C94451F0196272F0E94451F0C94441FF8
:103ED000DC01CB01FC01F999FECF06C0F2BDE1BDCA
:103EE000F89A319600B40D9241505040B8F70895B9
:103EF000FB01DC0104C08D910190801921F4415037
:103F00005040C8F7881B990B0895F894FFCFF70C21
:103F10001F0DC20E1F0DC20E520D730DC20E710E7B
:103F20007E0EFA11FE11EF11F611021206120A129C
:103F300085138513BF13BF1375148F14E913E91389
:103F400094140115121512154712BC124F121912B2
:103F50001D1253122112571263122D12B512311273
:103F6000671235126B12931239126F129A123F12A6
:103F700075127D1225125B1229125F1243127912FB
:103F80008912A312B31213124B12C312861D8A1D7B
:103F9000C91DDA1DE51DF01D911D911D911D911D7D
:103FA000911DF31DF51DF81D1E1E401E431E461ECD
:023FB0006B1E86
:103FB2004504C109BA09B30901818283E200E9001B
:103FC200EA00B500B600B700CD008301CC008A013B
:103FD20092019401210223022402250226022702D1
:103FE2002A02B300B4006F0070009F01CB019F0250
:103FF200A0023231F0F1F495939290333635349732
:10400200969491304422B684016201AC006A048322
:0440120004A30400FF
:00000001FF
