:100000000C941B030C9453030C9453030C94530350
:100010000C9453030C9453030C9453030C94530308
:100020000C9453030C9453030C94511B0C940D1B10
:100030000C944E1C0C9453030C9453030C945303D4
:100040000C9453030C9453030C9453030C945303D8
:100050000C9453030C942A1C0C9453030C945303D8
:100060000C9453030C9453030C9453030C945303B8
:100070000C9453030C9453030C9453030C945303A8
:100080000C9453030C9453030C9453030C94530398
:100090000C9453030C9453030C9453030C94530388
:1000A0000C9453030C9453030C945303050109025D
:1000B000A10185020901A1000509190129081500FE
:1000C0002501950875018102050109300931158165
:1000D000257F95027508810609381581257F9501D0
:1000E00075088106050C0A38021581257F95017572
:1000F000088106C0C005010980A101850319012AF4
:10010000B700150126B700950175108100C0050CD8
:100110000901A101850419012AA002150126A002E6
:10012000950175108100C005010906A1018506052C
:100130000719E029E71500250195087501810205D9
:1001400007190029EF1500250195F07501810205B9
:10015000081901290595057501910295017503910D
:1001600001C00660FF0961A1010962150026FF00B8
:100170009520750881020963150026FF00952075FA
:10018000089102C005010906A101050719E029E748
:1001900015002501950875018102950175088101F9
:1001A0000507190029FF150026FF0095067508812F
:1001B000000508190129051500250195057501910E
:1001C00002950175039101C0FD377A585A00000469
:1001D000E6D6B4460200210116000000742FE5A304
:1001E000E0025E00D45D003D8889C65436C3174FD7
:1001F000E4E6295B104AAEF6ED86BA82EAC9371307
:10020000A37114654509DB336BD2853EBC4F5B336C
:10021000BD116484A8C0435F26EBAA53407AFD5504
:10022000F109AE22258ABB203F51AD16F4E6AD7C24
:1002300071B7B21AA605C31F5B9535978F13AC62D1
:10024000D7FB68C61006DC2F7E8C337496E3BB9F09
:10025000D9D3018D97C6D161039453FD2C9FFC49DE
:10026000C9068557315D37F8DE5C56E51F3E4740CD
:100270003305B95F9B569FB34AA775006E0C549225
:100280003E2AA1454AAF42240ED96871E6D98A0EAA
:100290002F4D68EF0332333BE7B4BBD2FDB3F5FE1D
:1002A000BA06E5120E5CD0CE8653EB337A246A7818
:1002B000F0E9CC37D4BE4DB7DDB85200E5BBBA5C2F
:1002C0006E63FE7D0001F001DF04000067E5999296
:1002D000B1C467FB020000000004595A1E001F0051
:1002E0002000210022002300240025002900140002
:1002F0001A000800150017001C0018002B0004004D
:100300001600070009000A000B000D00E1001D00A7
:100310001B0006001900050011001000E000E300BA
:10032000E200000000002C00000000005800630004
:1003300062004F0050002252000000005B005A0093
:100340005900E50038003700360000005E005D000F
:100350005C00280033000F000E0000006100600008
:100360005F002A004C00130012000C0057005600DA
:100370005500540061522700260000001E001F0097
:100380002000210022002300240025002900140061
:100390001A000800150017001C0018002B000400AC
:1003A0001600070009000A000B000D00E1001D0007
:1003B0001B0006001900050011001000E000E3001A
:1003C000E200000000002C00000000004F0051007F
:1003D0005000E400E7002252000000002702520013
:1003E0002602E500380037003600000031023E00EA
:1003F0003400280033000F000E00000031003000F0
:100400002F002A004C00130012000C002E002D00BB
:10041000350035026152270026000000010001006E
:1004200001000100010001000100010001000100C4
:10043000010001000100010001000100390001007C
:1004400001000100010001000100010001000100A4
:100450000100010001000100010001000100010094
:100460000100000000000100000000000100010088
:100470000100510052000100000000004E004D003C
:10048000A8000100010001000100000001003E0081
:10049000AA00010001000100010000004B004A0019
:1004A000A90001000100010001000100010001009C
:1004B000B2004600010001000100000009025B00DB
:1004C000030100A0FA090400000103010100092151
:1004D00011010001224400070581030800010904FD
:1004E0000100020300000009211101000122220085
:1004F000070582032000010705030320000109040A
:100500000200010300000009211101000122B600D0
:1005100007058403200001120100020000000843C7
:100520005557530100010203011C03760069006165
:10053000006C003A0066003600340063003200624E
:100540000033006300000014035300680069006773
:10055000006100770069007200650000002203540A
:10056000007200610073006800200049006E0064A2
:10057000007500730074007200690065007300006C
:100580000004030904000000000000000000000057
:10059000000000000000000000000000000000005B
:1005A0000000000000000000007E0F00D4FFFFFFED
:1005B000C70000007800000000000000002A2B287F
:1005C000000000000000000000000000000000002B
:1005D00029000000002C1E34202122243426272547
:1005E0002E362D3738271E1F20212223242526337F
:1005F00033362E37381F0405060708090A0B0C0D81
:100600000E0F101112131415161718191A1B1C1D92
:100610002F3130232D350405060708090A0B0C0D70
:100620000E0F101112131415161718191A1B1C1D72
:100630002F3130354C0011241FBECFEFDAE0DEBF82
:10064000CDBF04B603FE18C080919402909195022C
:10065000A0919602B09197028730904BA740B04B83
:1006600059F41092940210929502109296021092F0
:100670009702E0E0F8E3099511E0A0E0B1E0E0E0E6
:10068000F7E402C005900D92AC36B107D9F722E02D
:10069000ACE6B1E001C01D92A439B207E1F70E94B7
:1006A000751C0C9431230C94000081FF08C0469AFD
:1006B00082FF07C0479A83FF06C08E9A0895469826
:1006C000F7CF4798F8CF8E980895482F2091900241
:1006D0009091570257E0291302C080E0089530E05E
:1006E000529FF001539FF00D1124E85AFD4F818174
:1006F000681306C08081481303C085818111EECF45
:100700002F5F3F4F2770E7CFE8EDF0E080818E7FCD
:1007100080831092E2001092DA001092E100A0EEC5
:10072000B0E08C9181608C9380818F77808319BC3D
:10073000A7EDB0E08C918E7F8C9380818F7E80833B
:100740001092280208952091E4003091E50095E68A
:10075000A9012091EC00822F817020FF06C08091BA
:10076000E80080FF06C080E008952091E80022FDA7
:100770001AC080914D02882389F0853089F08091DC
:10078000EB0085FD0FC02091E4003091E500421799
:100790005307F9F29150E1F684E0089582E008955C
:1007A00083E0089581E0089580914F0287FF13C090
:1007B0008091E80082FF06C08091E8008B778093EB
:1007C000E80004C080914D028111F2CF089580911C
:1007D0004D028823D9F38091E80080FFF8CF809103
:1007E000E8008E77ECCF982F9093E900242F762F96
:1007F00050E0891731F07091EC002091ED0050919C
:10080000F00021FD07C09F5F973071F78093E900EA
:1008100081E008953091EB003E7F3093EB00309102
:10082000ED003D7F3093ED003091EB00316030936F
:10083000EB007093EC002093ED005093F0002091BA
:10084000EE0027FDE0CF80E00895B0E0A0E0EBE20D
:10085000F4E00C948122C8EDD0E088818F7E8883FB
:10086000E7EDF0E080818160808384E082BF81E0F9
:100870008093280288818E7F888302EE10E0F80141
:1008800010821092DA0081EEC82ED12CF60110826F
:1008900088818F77888388818068888388818F7D2D
:1008A000888319BC10924D0210924E0210924C0295
:1008B00010924B0290EEE92EF12CF70180818B7F94
:1008C000808388818160888342E060E080E00E94CC
:1008D000F303F60180818E7F8083F801808181603F
:1008E0008083808188608083F70180818E7F808310
:1008F000888180618883CDB7DEB7E8E00C949D22C3
:10090000FC01809155029091560286179707A0F03E
:100910006115710529F49091E8009E779093E800A5
:1009200090E06115710551F4911108C08091E800C3
:1009300082FF34C080E00895BC01F2CF80914D0267
:100940008823C1F18530C1F18091E80083FD30C07A
:100950008091E80082FDEACF8091E80080FFE1CF3E
:100960008091F3002091F200382F6115710519F084
:100970002830310558F091E02830310509F090E039
:100980002091E8002E772093E800CBCF81918093CF
:10099000F100615071092F5F3F4FE7CF80914D0209
:1009A000882341F0853041F08091E80083FFBECF7D
:1009B00081E0089582E0089583E0089580912A02FD
:1009C00008959C014FB7F8948091220290912302E0
:1009D000A0912402B09125024FBF821B930B089572
:1009E0002FB7F8948091220290912302A0912402C3
:1009F000B09125022FBF0895A3E0B0E0E2E0F5E05A
:100A00000C94872220911F02309120022817390769
:100A1000A1F09093200280931F02E0911D02F091BB
:100A20001E02309751F024E029839B838A8306803D
:100A3000F781E02DCE01019609952396E2E00C9412
:100A4000A322A3E0B0E0E7E2F5E00C948722209136
:100A50001B0230911C0228173907A1F090931C0249
:100A600080931B02E0911D02F0911E02309751F01D
:100A700023E029839B838A830680F781E02DCE01C2
:100A8000019609952396E2E00C94A322E0911D02C1
:100A9000F0911E02309729F00190F081E02D099528
:100AA000089580E008950E94F0049C019091130243
:100AB00080911402982B21F03093100220930F02A2
:100AC0009091150280911602982B21F030930E021E
:100AD00020930D02E0911D02F0911E02309749F023
:100AE00082E0809311020480F581E02D81E192E0A3
:100AF0000995089580910C0280FD16C081FD16C0F5
:100B000082FD16C080910B028823A1F0883280F408
:100B100028E0829FC001112468E270E00E94562202
:100B2000862F672B39F0089582E0089584E00895B8
:100B300088E0089581E0089580910C0280FD14C042
:100B400081FD14C082FD16C080910A02882381F0C5
:100B50008E3180F420E5829FC00111246EE170E0A7
:100B60000E945622862F089584E1089588E2089510
:100B700088E0089580E50895282F35EB2303C00110
:100B8000112497FF04C080589109892F0895805837
:100B90009F4FFBCF80E00895F894E82FE295EF7027
:100BA000F0E031A1282F2F7081E090E001C0880F84
:100BB0002A95EAF7982F9095932391A392A1892BD8
:100BC00082A3789408959091260292FF10C041E08C
:100BD000282F2471243009F040E031E0282F2871BB
:100BE000283009F030E0431711F02CE0822793FF02
:100BF00010C041E0282F2471243109F040E031E099
:100C0000282F2871283109F030E0431711F02CE02B
:100C100082273091270230FF10C051E0282F217128
:100C2000213009F050E041E0282F2871283009F0E8
:100C300040E0541711F029E0822731FF10C041E055
:100C4000282F2171213109F040E031E0282F28714F
:100C5000283109F030E0431711F029E0822794FD94
:100C6000877E089582389105B9F1B0F481339105FA
:100C700009F47DC048F48932910509F46DC08A32C7
:100C8000910509F47BC008958533910509F45FC08F
:100C90008933910509F10895833E9105D9F138F41E
:100CA000803E910529F1823E910579F10895863EB5
:100CB0009105D9F1873E910509F43EC0843E910526
:100CC00041F52091270221FF24C08091260284FD56
:100CD00019C087EE90E0089520912602237009F054
:100CE0005AC02091270223FF14C089E290E00895A2
:100CF0002091260220FD38C03091270230FF09C024
:100D000024FF43C090E080E008952091260222FD58
:100D1000F7CF08952091260222FD3AC03091270294
:100D200030FD39C024FFF5CFEDCF2091260223FFFF
:100D3000F0CF24FDE7CFCDCF2091260223FD2EC09A
:100D40003091270231FFEECF84EE90E0089520919C
:100D5000260225FFDECFC9CF2091260225FD21C026
:100D60002091270223FFD5CF89E390E0D2CF2091B5
:100D7000260226FFCECF8AE290E008952091260237
:100D800026FFC7CF81E390E0089583EE90E00895B9
:100D900082EE90E0089580EE90E0089586EE90E077
:100DA000089585E390E008951F93CF93DF930E9409
:100DB0003206EC01C11580E5D807F0F5C11580E4D5
:100DC000D80708F09CC0C03ED10520F5CD3CD10528
:100DD00008F082C0C83AD10578F4C53AD10508F0C8
:100DE00073C0C130D10519F1209709F1C430D10584
:100DF000F0F4D0E0C0E01BC0C33CD105D0F7C85A26
:100E0000D0E0CC0FDD1FCC5EDE4F0990D881C02D25
:100E1000D4640DC0C11580E2D80708F0D1C0C11557
:100E200081E0D80708F05AC0C83ED10510F7CE01BE
:100E3000DF91CF911F910895C03682E5D80718F54C
:100E4000C03482E5D80708F06BC0C03282E5D8070D
:100E500008F05FC0C11582E5D80708F497C02C2FB1
:100E60002695269580E2289F900111248C2F83706F
:100E7000C1E0D0E002C0CC0FDD1F8A95E2F7C22BA3
:100E8000D32BDD68D4CFC03A82E5D80760F4C038F0
:100E900082E5D80708F459C0CF71D0E0DC2FCC2709
:100EA000C46FD06AC4CFC03C82E5D80708F462C0E2
:100EB000C03E82E5D80708F09CCFDC2FCC27CC279A
:100EC000DF71C06FD06AB3CFC55AD0E0CF5EDE4FBE
:100ED000C881D0E0D064ABCFD065A9CF8D2F0E9460
:100EE000E305182FCE0199270E943206C12FD0E0CA
:100EF000DC2FCC27CC27DF71C82BD92B98CFCE0184
:100F000099270E943206CC27DF70C82BD92BD06AD4
:100F10008ECFCF71D0E0DC2FCC27C16FD06A87CFC6
:100F20002C2F26952695277080E2289F900111246A
:100F30008C2F8370C1E0D0E002C0CC0FDD1F8A95FA
:100F4000E2F7C22BD32BDC6872CF2C2F2695269587
:100F5000277080E2289F900111248C2F8370C1E0BC
:100F6000D0E002C0CC0FDD1F8A95E2F7C22BD32B55
:100F7000DA685DCF8C2F8F710E94E305C82FD0E017
:100F8000DC2FCC27CC27DF71D06251CF8C2F8F7113
:100F90000E94E30555E0D695C7955A95E1F7CF70C5
:100FA000D0E0DC2FCC27282F30E084FF05C044E0C0
:100FB000220F331F4A95E1F7C22BD32BD06937CFCD
:100FC0008D2F8F710E94E305182FCE0199270E9463
:100FD0003206C12FD0E0DC2FCC27CC27DF71C82B05
:100FE000D92BD2CF8091DC01882331F01092DC0123
:100FF0001092DB011092DA0108959091DC01292F03
:10100000282361F0809589238093DC01882339F0BF
:101010000E94F0049093DB018093DA01089590E040
:1010200080E0F8CF80959091D90198239093D901D1
:1010300008951092B7011092B6011092B50108956B
:101040009091B401292F282321F080958923809342
:10105000B4010895909108019923D1F0909126024E
:1010600097FF16C0E82FE695E695E695EE31E0F499
:10107000F0E0E259FE4F282F277081E090E001C098
:10108000880F2A95EAF780959281892382830895B3
:10109000E0E7F1E09191891303C0DF0111971C9201
:1010A00091E0E637F907B1F7089590910801992387
:1010B000C1F09091260297FF14C0E82FE695E695BF
:1010C000E695EE31F8F4F0E0E259FE4F877021E04A
:1010D00030E001C0220F8A95EAF78281822B828359
:1010E0000895A0E7B1E0EFEF90E02D91821751F065
:1010F000EF3F19F4211101C0E92F9F5F9630A9F746
:10110000EF3F09F408950E2E000CFF0BE259FE4F3D
:10111000E6CF8091900290915702981301C00895F4
:101120008F5F8770FACF9A3080F5883070F548E08D
:10113000949F90011124820F932F911D682F677047
:1011400023E0969587952A95E1F7FC01EE0FFF1FA6
:10115000E80FF91FE157FE4F50E040E080E0219199
:1011600030E0062E02C0369527950A94E2F72170EA
:101170003327042E01C0220F0A94EAF7822B4F5F17
:101180005F4F4330510559F7089580E008959A3034
:1011900098F5883088F548E0949F90011124820FDB
:1011A000932F911D282F277041E001C0440F2A95ED
:1011B000EAF723E0969587952A95E1F7FC01EE0F73
:1011C000FF1FE80FF91FE157FE4F90E080E070E04D
:1011D0005191DF0111979B01082E02C0369527958A
:1011E0000A94E2F7217021952527242325272C93A3
:1011F00001968330910561F70895CF93C82F0E941F
:1012000046058C2F0E945503C093ED01CF910895A0
:101210009091ED0121E030E0F90101C0EE0F8A95D7
:10122000EAF7D90102C0AA0FBB1F6A95E2F7EA2BC1
:1012300001C0220F4A95EAF7892F8E23E81305C0D3
:10124000292B822F0E94FD08089520952923F9CF8C
:1012500021E030E001C0220F8A95EAF720958091C5
:10126000ED0182230E94FD0808959091B7018095B9
:1012700089238093B701282F277069F4891759F0C3
:101280009091270292FF07C08695869586950E94C9
:1012900028090E941908089521E030E001C0220FBA
:1012A0008A95EAF78091ED01822B0E94FD0808954E
:1012B0009091270292FF10C098E0899F900111241D
:1012C000622B6093B7010E944C090E94F004909336
:1012D000B6018093B50108950E944C09089580934A
:1012E000EC010895662309F45DC08D3C41F40E9431
:1012F0009C058195809314020E94530508958E3CAD
:1013000019F40E949C05F6CF8F3C31F40E949C0595
:10131000819580931302F0CF803D19F40E949C05C3
:10132000F8CF893D29F40E947A0580931502E4CF15
:101330008A3D21F40E947A058195F7CF8B3D31F4E7
:101340000E947A05819580931602D6CF8C3D19F4C0
:101350000E947A05F8CF9FE2980F983070F4815D73
:10136000990B21E030E001C0220F8A95EAF78091C5
:101370001202822B80931202BFCF8D3D31F48091F7
:101380000C02816080930C02B7CF8E3D21F48091D6
:101390000C028260F7CF8F3D09F0AECF80910C0236
:1013A0008460F0CF409113028D3C59F48091140277
:1013B00087FF0DC01092140241110BC010920A0257
:1013C00008C08E3C81F48091140218169CF34423CB
:1013D00081F08091150290911602892B09F08CCF33
:1013E00010920B0289CF8F3C49F447FFF0CF109247
:1013F0001302809114028111ECCFE0CF803D19F4EB
:101400001416ACF3E4CF90911502893D29F4191616
:10141000F4F610921502DBCF8A3D19F497FFD7CF6F
:10142000F8CF909116028B3D29F497FFD0CF109200
:101430001602CDCF8C3D19F41916CCF3C8CF9FE21C
:10144000980F983090F4815D990B21E030E0B9015C
:1014500002C0660F771F8A95E2F7CB0180959091C5
:101460001202892380931202B2CF8D3D31F4809114
:101470000C028E7F80930C02AACF8E3D21F48091C6
:101480000C028D7FF7CF8F3D09F0A1CF80910C0228
:101490008B7FF0CFCF93C82F0E9446058091ED013E
:1014A0000E945503C1FF03C08D9ACF9108958D9876
:1014B000FCCF9C013A9521153F4150F5FC01EE27E8
:1014C000F170BC0166277270AC01442754709C0116
:1014D0002227387094FF0EC080E1EF2B09F480E0E2
:1014E000672B09F08062452B09F08064232B89F07B
:1014F0008068089581E0EF2B09F480E0672B09F004
:101500008260452B09F08460232B19F088600895D0
:1015100080E008950F931F93CF93DF938B01EA012F
:1015200090914D02943061F58093E9008FEF909196
:10153000E800815095FD06C095ED9A95F1F7000001
:101540008111F5CF8091E80085FF1AC00E94A303A6
:10155000811111C08091E80085FD06C08091E800EE
:101560008E778093E800F2CFF80181918F0180930C
:10157000F100219779F78091E8008E778093E80059
:10158000DF91CF911F910F91089543E050E0BC018E
:1015900084E00E948A0A089546E050E0BC0184E09D
:1015A0000E948A0A0895CF93DF93EC01809108018D
:1015B000811111C048E050E0BE0181E00E948A0A1A
:1015C00080E2FE01ABE2B2E001900D928A95E1F774
:1015D000DF91CF9108958091260287FF05C040E2F8
:1015E00084E050E0BE01EACF48E081E0FACF81E03C
:1015F0008093E00080E28093D8001092C9008FE1D0
:101600009EE40197F1F700C0000087E090EBDC0159
:101610008093940290939502A0939602B0939702C0
:1016200088E19CE00FB6F894A895809360000FBE07
:1016300090936000FFCFCF93DF93C9EAD2E060E0E0
:10164000CE010E94FD222196C11584E0D807B9F78A
:10165000DF91CF9108951F93CF93DF93122F8430A2
:10166000E0F46A30D0F44830C0F490E1699FE001C2
:10167000112450E0440F551FC40FD51F90EA899FD5
:10168000C00DD11D1124632FCE0189960E94FD2229
:10169000612FCE018A960E94FD22DF91CF911F918A
:1016A0000895B0E0A0E0E7E5FBE00C947F22C09055
:1016B0001902D0901A0281E090E090931A02809370
:1016C00019029CEDE92E92E0F92EB12C8701A12C94
:1016D0001CC04C2F83E021E030E0B81641F0FE0141
:1016E000EE0FFF1FE00FF11F859194919C016A2D71
:1016F0008B2D0E942B0B2196C830D10551F7A39456
:10170000005F1F4F8AE0A81619F0D0E0C0E0E1CFDB
:10171000B39480EAE80EF11C84E0B812D7CFD092DF
:101720001A02C0921902CDB7DEB7EAE00C949B22F0
:10173000CF93C82F6FEF81116AE785E290E00E9496
:10174000FD226FEFC11164E786E290E00E94FD2266
:101750006FEFC1116AEB87E290E00E94FD22CF910A
:10176000089580E00E94980B60E088E290E00E947B
:10177000FD220E94510B0E941B0B81E00E94980BDE
:1017800008950F931F93CF93DF93843030F56A3021
:1017900020F5483010F520E1629F8001112450E0CF
:1017A000440F551F040F151F30EA839F000D111DB4
:1017B0001124C80189960E94DF22C82FD0E0DC2FB7
:1017C000CC27C8018A960E94DF229E01282BC901DE
:1017D000DF91CF911F910F91089590E080E0F8CFB5
:1017E000462F2091080230910902232B99F4703F73
:1017F00039F4603F79F480911702909118020895AE
:101800007A3040F4683030F4843020F4672F0E943E
:10181000C10B089590E080E00895CF92DF92FF928F
:101820000F931F93CF93DF936C010091ED01809193
:10183000EC01082BC3E0D0E010E0FC2EC8010C2E18
:1018400002C0959587950A94E2F780FD0CC0219718
:10185000A0F7F12C8F2DDF91CF911F910F91FF9069
:10186000DF90CF900895B6018C2F0E94F00B0E945C
:10187000D406019761F3EECFCF93DF93EC010E9482
:101880000D0CBE010E94F00B0E94D406DF91CF9197
:101890000895FC0124812223C1F0808191810E945E
:1018A0003C0C92959F70963091F058F4925F9F7027
:1018B000923058F4803F19F030F4883E30F481E0E3
:1018C00008959A5FF4CF843FD1F380E00895883E75
:1018D000B0F3813FD1F7F3CFA6E0B0E0E2E7FCE060
:1018E0000C94862249835A8349815A819923A1F015
:1018F000222391F0CA010E940D0C182F682F8981B4
:101900009A810E94C70869817A81812F0E94F00B19
:101910002696E3E00C94A222CA010E949308182F95
:10192000F2CF85E290E00E94DF228A3789F486E2D6
:1019300090E00E94DF22843759F487E290E00E9411
:10194000DF2291E08A3B09F090E0892F81700895B1
:1019500080E0FCCF9091270292FB222720F92817E4
:1019600079F080FB92F990932702609126027091A2
:10197000270284E090E00E941B2382E00E94350948
:1019800008958091D9019091D801892B80936E019F
:101990008091DC01882329F10E94F0042091DA0172
:1019A0003091DB01821B930B8838934110F00E9429
:1019B000F20780916E019091DC01892B80936E017A
:1019C000809108018823E1F18091260287FF38C0C9
:1019D0008EE1E0E7F1E090E08150A0F591110E94E6
:1019E000F20740E250E068EB71E08EE691E00E9481
:1019F000CB22892B21F180E2EEE6F1E0A8EBB1E009
:101A000001900D928A95E1F7E0911D02F0911E027E
:101A10003097A9F080910801882359F0809126021F
:101A200087FF07C080916E0180936F0186E08093ED
:101A30006E010280F381E02D8EE691E00995089514
:101A400086E0C7CF2191222339F29F5FC5CF109244
:101A5000D90180910801E0E7F1E0882329F1809124
:101A6000260287FF21C08EE1DF011D928A95E9F7EA
:101A700090E080E00E94210590E080E00E94FC045C
:101A80001092D8010E94C10C86E0E1E1F2E0DF0192
:101A90001D928A95E9F710920A0210920B02109299
:101AA0000C020E945305089586E0DECFAAE2B0E062
:101AB000ECE5FDE00C9486228FE492E02091F100A9
:101AC000DC012D93CD01B2E087359B07B9F78091FA
:101AD0005002833009F472C0B8F4813009F449C06F
:101AE000823009F4B3C08091E80083FF96C28091F0
:101AF0004F02909150029A3008F08FC2E92FF0E027
:101B0000ED5CFC4D0C946A228A3009F48EC08B3057
:101B100009F471C0893039F780914F02813219F789
:101B20008091530290915402009711F00297D9F6D8
:101B30008091E800877F8093E8008091E80082FF31
:101B400038C09091F3008091F200029731F48091B7
:101B5000F100813011F0863021F48091F100809302
:101B60002A028091E8008B778093E8000E94D403DA
:101B7000BACF80914F02813A09F0B5CF8091E80049
:101B8000877F8093E8008091530290915402892BC3
:101B900061F460E28BE292E070E00E948004809148
:101BA000E8008B778093E8009ECF60E090E080E0D3
:101BB000F3CF80914D028111C0CF95CF80914F021C
:101BC000813A09F090CF8091530290915402892B71
:101BD00009F089CF8091E800877F8093E8008091A9
:101BE000E80080FFFCCF809108018093F100809194
:101BF000E8008E77B9CF80914F02813209F073CF20
:101C00008091530290915402892B09F06CCF8091FE
:101C1000E800877F8093E8000E94D40380915102FE
:101C2000809308010E94270D5ECF80914F02813280
:101C300009F059CF8091E800877F8093E8000E94E7
:101C4000D40380915202809329024DCF80914F029C
:101C5000813A09F048CF8091E800877F8093E800BF
:101C60008091E80080FFFCCF80912902BECF8038B0
:101C700099F0823809F0D1C1809153028F7087307A
:101C800008F0CBC18093E9008091EB0085FB8827A9
:101C900080F91092E90006C080914B0290914C02AD
:101CA000911182609091E800977F9093E800809373
:101CB000F1001092F1008091E8008E77AAC188238C
:101CC00009F498C1823009F0A8C1809151028111B4
:101CD0009BC1809153028F702FEF280F263008F0A0
:101CE0009CC18093E9002091EB0020FF8DC19330CF
:101CF00031F48091EB0080628093EB0085C190917C
:101D0000EB0090619093EB0021E030E001C0220FE6
:101D10008A95EAF72093EA001092EA008091EB009E
:101D20008860EACF811179C1109151021F778091AB
:101D3000E3008078812B8093E3008091E800877F27
:101D40008093E8000E94D4038091E80080FFFCCFDC
:101D50008091E30080688093E30082E0111183E0CA
:101D600080934D025AC18058823008F056C12091AC
:101D70005102309152022C3DE3E03E07A1F583E091
:101D80008A838AE289834FB7F894DE01139620E0B4
:101D90003EE051E2E32FF0E050935700E49120FF42
:101DA00003C0E295EF703F5FEF708E2F90E0EA3056
:101DB000C0F0C7968D939D932F5F243159F74FBF85
:101DC0008091E800877F8093E8006AE270E0CE01AE
:101DD00001960E9480048091E8008B778093E80050
:101DE0001CC1C096E7CF8091530290915402432FBB
:101DF00055274330510509F44AC078F54130510563
:101E000009F485C08BE590E0ECEBF4E0423051053D
:101E100009F003C12091E800277F2093E80020917A
:101E20005502309156028217930708F49C0140E056
:101E30002115310509F070C041116EC08091E80094
:101E400082FDC9CF80914D02882329F2853019F295
:101E50008091E80083FFF2CFBECF4132510509F4F3
:101E600047C04232510509F0D8C08330910508F0CF
:101E7000D4C0FC01EE0FFF1FE15AFE4F0190F0812C
:101E8000E02D845A9E4FDC018C9190E01DC03327D9
:101E900021303105E9F02115310579F02230310585
:101EA000F9F02330310509F0B8C0E9E2F5E0E4913A
:101EB0008E2F90E0E9E2F5E007C0E1E8F5E0E4917B
:101EC0008E2F90E0E1E8F5E0009709F4A6C0A2CFDC
:101ED000EDE5F5E0E4918E2F90E0EDE5F5E0F4CF4F
:101EE000E7E4F5E0E4918E2F90E0E7E4F5E0ECCF55
:101EF0008330910508F091C0880F991FFC01EB59C0
:101F0000FE4F0190F081E02D89E090E083CF82E1E7
:101F100090E0E7E1F5E07ECF80914D02882309F45F
:101F20005ACF853009F457CF8091E80083FD53CF15
:101F30008091E80082FD82CF8091E80080FF78CF19
:101F40009091F3008091F2002115310519F088304D
:101F5000910550F041E0089709F040E08091E800D9
:101F60008E778093E80064CF44914093F1003196DE
:101F7000215031090196E8CF803809F04EC0809198
:101F8000E800877F8093E80080914E028093F10003
:101F900092CE811142C0109151021230F0F5809121
:101FA000E800877F8093E80010934E020E94D403DC
:101FB000112311F084E005C08091E30087FDFACF82
:101FC00081E080934D0242E061EC81E00E94F303E6
:101FD00042E261EC84E00E94F30342E261EC82E0C1
:101FE0000E94F30342E260EC83E00E94F3038091DD
:101FF0004D0213C080915102813079F481E0933019
:1020000009F080E080934C021092E9008091E80092
:10201000877F8093E8000E94D4038091E80083FFCB
:102020000AC08091E800877F8093E8008091EB00F0
:1020300080628093EB00AA96E3E00C94A2220E94B7
:10204000270D2FEF84E39CE0215080409040E1F782
:1020500000C0000088E19CE00FB6F894A89580933A
:1020600060000FBE90936000FFCF882341F0809501
:102070009091D80189238093D8010E94C10C0895C2
:10208000882339F09091D801982B9093D8010E9421
:10209000C10C0895882321F00E9412080E94C10CEF
:1020A0000895882339F09091D901982B9093D90104
:1020B0000E94C10C0895882309F456C0823879F42F
:1020C0000E94460581FF50C089E30E9455080E9486
:1020D000C10C89E30E942A080E94C10C089583382C
:1020E00059F40E94460580FF3FC083E50E945508D1
:1020F0000E94C10C83E5EECF843859F40E94460556
:1021000082FF32C087E40E9455080E94C10C87E418
:10211000E1CF9CEF980F913AE8F290E2980F983057
:1021200050F4877091E001C0990F8A95EAF7892FE2
:102130000E941208D1CF9BE5980F933028F490E0CD
:1021400080E00E942105089598E5980F9B3128F4BE
:1021500090E080E00E94FC04089593E3980F93318F
:1021600018F460E00E9472090895CF93C82F882365
:10217000C9F08238C9F40E94460581FD13C089E385
:102180000E9455080E94C10C2FEF87EE93E021506A
:1021900080409040E1F700C0000089E30E942A08D7
:1021A0000E94C10CCF9108958338A1F40E94460586
:1021B00080FDF8CF83E50E9455080E94C10C2FEFE7
:1021C00081EE94E0215080409040E1F700C0000093
:1021D00083E5E4CF8438A1F40E94460582FDE2CF76
:1021E00087E40E9455080E94C10C2FEF81EE94E015
:1021F000215080409040E1F700C0000087E4CECF3E
:102200008CEF8C0F813A88F580910801882301F1C9
:102210008091260287FF1CC0EC2FE695E695E69597
:10222000F0E0E259FE4F828190E04C2F477021E0B0
:1022300030E002C0220F331F4A95E2F78223932336
:10224000892B79F08C2F0E942A080E94C10C09C0AA
:10225000E0E7F1E08191C817A9F321E0E637F20742
:10226000C9F78C2F0E9455089BCF80E28C0F8830D5
:1022700068F4C77021E030E001C0220FCA95EAF788
:102280008091D901822B8093D9018ACFEBE5EC0FA5
:10229000E33040F4F0E0EF5EFE4F808190E00E947A
:1022A000210580CFE8E5EC0FEB3150F4F0E0EE0FC4
:1022B000FF1FEC5EFE4F808191810E94FC0472CF73
:1022C00083E38C0F833108F06DCF61E08C2F0E9487
:1022D000720968CF1F93CF93DF93182FD0E0C0E02F
:1022E000893311F4C0E5D0E0812F0E94B51020970A
:1022F00039F4812F0E945B10DF91CF911F910895D7
:102300008FE99FE00197F1F700C000002197EFCF20
:102310000F931F93CF93DF93C62FD42F022FFC016F
:1023200085818823A9F0609393020E94F004909322
:10233000920280939102C77081E001C0880FCA9514
:10234000EAF70E945110DF91CF911F910F910895EC
:1023500080919302681332C0809191029091920211
:102360000E94E104883C910548F510E21D0FCD174D
:10237000B9F080E28C0F883040F4C77081E001C072
:10238000880FCA95EAF70E944A10183048F481E095
:102390009D2F977001C0880F9A95EAF70E945110FF
:1023A000802F0E946A11183070F6D77081E001C04A
:1023B000880FDA95EAF70E944A10C5CFC77081E00E
:1023C00001C0880FCA95EAF7F6CFB0E0A0E0EBEEC7
:1023D000F1E10C947F22EC018AE0A82E28812223CF
:1023E00009F48FC02130C9F599818A81913021F497
:1023F00022960E946A1105C0923029F422960E940A
:10240000B5102196EBCF933021F422960E945B10F9
:10241000F8CF943011F02196F4CF229630E020E0EE
:10242000AE014F5F5F4F8053990B8A30910550F09A
:102430002150310930F38FE99FE00197F1F700C097
:102440000000F6CFA29EB001A39E700D11249C0146
:10245000260F371F8981EA01E3CFE22FF0E0EB542A
:10246000FA4FB490822F86958695869590E0FC0170
:10247000EB55FA4FE4902770F12C022E02C0F59430
:10248000E7940A94E2F731E0E322FF24FC01EB56E3
:10249000FA4FC490D12C022E02C0D594C7940A944E
:1024A000E2F731E0C322DD24FC01EB57FA4F04913F
:1024B00010E002C0159507952A95E2F701701127E3
:1024C000E114F10419F081EE0E94B510C114D10499
:1024D00019F086EE0E94B5108B2D0E946A11C1146E
:1024E000D10419F086EE0E945B10E114F10419F09A
:1024F00081EE0E945B100115110509F482CF8CE278
:1025000078CFCDB7DEB7EAE00C949B22A4E0B0E030
:10251000ECE8F2E10C947D227C01FC0184818823AB
:1025200009F4DDC021E04081518162817381958190
:102530000E946C0C8C01F7018581882309F4AFC0DF
:10254000C80197578038910508F086C4003108F01B
:10255000B7C08FEF93E00E94DF228111B1C059EA2A
:10256000C52E52E0D52E011135C019821A821B8268
:102570001C820FEF46013FEF831A930AC6010E94A7
:10258000DF2289831A82882309F49AC0813009F0F6
:1025900080C0560142E0A40EB11CC4010E94DF229B
:1025A000182F8A83882309F48BC0C5010E94DF227B
:1025B000982E8FEF810F8330E0F4560153E0A50E83
:1025C000B11C9B82992021F0CE0101960E94E51159
:1025D0006501D0CFC114F4E0DF0609F471C0C60173
:1025E0000E94DF22811101C001502FEFC21AD20ACE
:1025F000BACF8BEF810F833038F5C60103969B82EB
:102600005C01992029F35601E4E0AE0EB11C0E9452
:10261000DF228C838823E1F2CB80DC80F1E0CF16CF
:10262000FFEFDF0610F0DC2CCC24163049F0173019
:1026300019F0C6010E94031AC6010E94CB19C8CF27
:10264000C6010E94031AC4CF143011F6560124E0CB
:10265000A20EB11CC60103960E94DF22992081F1CF
:10266000882371F18150990B089F9001099F300DCB
:102670001124492D4150550BCA01820F931F019718
:1026800008F4A6CFEFE9FFE03197F1F700C00000B2
:10269000F6CFCE0101960E94E511540199CFF801C1
:1026A000E851FC47E730F10508F0CAC3E35CFC4D94
:1026B0000C946A2226E241EE61EEC7010E94881165
:1026C0008091B701877059F0F7018581882339F02F
:1026D0008091270282FF03C082E00E943509249680
:1026E000ECE00C94992227E245EE65EEE6CF26E277
:1026F00041EE60EEE2CF27E245EE64EEDECF26E269
:1027000041EE62EEDACF27E245EE66EED6CF28E262
:1027100041E0EBCF8091260281608093260295C034
:10272000809127028860809327028FC080912602C3
:102730008260F3CF809126028460EFCF80912602E1
:102740008860EBCF809127028160EDCF80912702D6
:102750008260E9CF809126028061DFCF80912602DE
:102760008062DBCF809126028064D7CF0E94270D44
:10277000809126028068D1CF809126028C60CDCFD7
:10278000809127028360CFCF809126028E7FC5CFB4
:1027900080912702877FC7CF809126028D7FBDCF92
:1027A000809126028B7FB9CF80912602877FB5CF9B
:1027B000809127028E7FB7CF809127028D7FB3CF84
:1027C000809126028F7EA9CF809126028F7DA5CF92
:1027D000809126028F7BA1CF0E94270D8091260237
:1027E0008F779BCF80912602837F97CF809127029E
:1027F0008C7F99CF8091260282FB992790F921E066
:10280000922790FB82F990FB83F987CF8091270272
:10281000982F909591708E7F892B90FB81F983CFB3
:1028200090912602892F8F7B96FF806476CF0E943D
:10283000270D90912602892F97FB87F980586DCF3D
:1028400061E08EE090E00E94FD226091260270918E
:10285000270284E090E00E941B230E94270D30CFC6
:1028600060E0EFCF90912602892F8F7E94FF8061E8
:1028700054CF90912602892F8E7F90FF81604DCF9B
:1028800090912702892F877F93FF88604CCF85E343
:10289000D2C285E3DEC207372CE7120709F464C011
:1028A00082E008373CE7130709F45FC003304CE7C8
:1028B000140709F481C008F064C001158CE71807FB
:1028C00009F46DC001301C4709F47CC0F701858113
:1028D00000811181882309F483C0C8010E940D0C76
:1028E000D82E682FC8010E94C708B8018D2D0E94FC
:1028F000F00B0E94D4068C01882EF701A5809680EB
:1029000092943FE093228091B7018770F1F0DA2C26
:10291000AA20E1F0812F807F803451F080E2800F87
:10292000883098F0911004C0812F807E803269F049
:102930008091270282FF09C082E00E9435098091C0
:10294000B7018770DD24D3948111D12CC12EC2949C
:102950002FE0C222FBE0FC1508F4A7C0EC2DF0E04C
:10296000EC5BFC4D0C946A2281E00E944C0943E030
:1029700062E081E00E940809A3CE81E00E9428095C
:10298000F6CF0B35ECE71E0749F10C35FCE71F07C6
:10299000D9F00A351C4709F099CF81E01CC00E948C
:1029A000270D3FEF44E35CE0315040405040E1F7F9
:1029B00000C000000E94F70A6FEF7FEF90E080E018
:1029C0000E941B230E941F108091270282FB8827F0
:1029D00080F991E089270E94AA0C78CF80E0FBCF94
:1029E000C8010E949308D82E80CF212F2F70B22EBD
:1029F000107F19F0B29490EFB922AA20B9F0BB2051
:102A000069F080E2800F883010F0811009C0809159
:102A1000D901B82AB092D9010E94C10C802F43C0BD
:102A20008091D801B82AB092D801F6CF802F0E94A9
:102A30005B10BB20D1F1005E083010F0811004C0A3
:102A40008B2D0E94120806C0B0948091D801B82244
:102A5000B092D8010E94C10C28C0312F3F70B32E14
:102A6000107F103219F0B29480EFB822882059F00C
:102A700041E0841609F490C0AA2009F49CC0992072
:102A800009F449C0CBCF8091270282FD40C0AA2023
:102A9000C1F1BB2039F01091D9011B291093D90144
:102AA0000E94C10C80E00E94B5104C2D4850550B7F
:102AB0004430510520F40E9446050E944A0ADD2058
:102AC000A9F08091B70180FD11C0F70115828695AC
:102AD000869586950E944C09C7010E9486128091B6
:102AE000B7018695869586950E94280920E0F70112
:102AF0004081518162817381848195810E946C0C37
:102B0000EECD80E00E945B10BB2079F299CFAA2025
:102B100071F1911004C08B2D0E945110C6CF51E06D
:102B2000951211C01091DC018B2D8123B81609F488
:102B3000BCCF0E94F0049093DB018093DA011B2943
:102B40001093DC01B2CF85E09812AFCF8B2D0E949D
:102B500051108B2D0E94FD078091B4019B2D98236D
:102B6000B91609F4A2CF8B298093B4019ECF91109E
:102B70000AC08B2D0E944A108B2D0E94FD078B2DC1
:102B80000E94200892CF91E099128FCF8091D901B5
:102B90008B2109F48ACFEDCFAA2029F0E5E0E915D1
:102BA00008F483CFB8CFF4E0F91508F47ECF8B2D6D
:102BB0000E944A107ACF9920D1F329E3821209C0EA
:102BC0003FEF47EE53E0315040405040E1F700C046
:102BD0000000802F0E945B1068CF812F869586951C
:102BE000837061F0813009F060CFC8019370A1104B
:102BF00002C080E090E00E94FC0457CFC8019370AF
:102C0000A11002C080E090E00E9421054ECF6A2D05
:102C1000802F0E94720949CF812F837089F5A110FE
:102C200044CF402F429546954770440F440F802F64
:102C30008F70042E01C0880F0A94EAF7202F2071AC
:102C400004FF07C02FE030E001C0220F4A95EAF7E9
:102C50002095169516951370123069F050F4309146
:102C6000EC01113029F0822B83230E946F091DCFC4
:102C7000832B822BFACF282B8091EC018227F5CF72
:102C80008695AA2011F0812F8170882309F40DCF39
:102C9000402F429546954770440F440F802F8F7008
:102CA000042E01C0880F0A94EAF7202F207104FF38
:102CB00007C02FE030E001C0220F4A95EAF72095C7
:102CC000169516951370123069F050F43091ED019D
:102CD000113029F0822B83230E94FD08E6CE832B3E
:102CE000822BFACF282B8091ED018227F5CF1F7020
:102CF000AA2029F0812F0E944C09802F0DCF802F10
:102D00000E944A10812F0E942809CFCE802F92EF77
:102D10008916B1F1981570F0E0EF8E16D1F0F1EF51
:102D20008F1691F0AA2009F466C0911077CE812FFA
:102D30008F712AC023EF821651F134EF8312F2CF44
:102D40008091270282FD2FC0812F8F71AA20D9F296
:102D50001BC0AA2081F044E0491508F4A6CE1F71DB
:102D600081E090E0012E01C0880F0A94EAF790916B
:102D7000ED018927B1CF55E0591508F496CEEFCF74
:102D8000812F8F71A110BFCF0E944C098ECE80E0A1
:102D9000AA2009F4A1CF1F7181E0012E01C0880F84
:102DA0000A94EAF799CFAA20C9F08091B7018770F9
:102DB000843041F40E941908812F8F710E942809E4
:102DC000D12C73CE84E08915D8F31F71812F0E9416
:102DD0004C0963E0812F0E945809F2CF94E09915C5
:102DE00030F40E94190864E0812F8F71F4CF81E0E4
:102DF0000E943509E5CF992059F0893309F0E9CED1
:102E0000EFEFF7EE23E0E150F0402040E1F7DFCEB6
:102E1000812F8F7178CF0631FCE71F0709F03BCD7A
:102E20008091D9018A7A91E009F490E090938E0123
:102E300081112DCD89E20E9455080E94C10C40CC21
:102E400006312CE7120741F580918E01811121CDC9
:102E500089E20E942A08F1CFF801E851FC47E730E7
:102E6000F10508F423CC10929302C8019057839780
:102E700090F684E090E00E94E722909327028093EE
:102E80002602F801E150F047E232F10508F042CCA9
:102E9000E05BFC4D0C946A2207373CE7130709F40A
:102EA0006CCD08374CE7140709F010CD82E066CDF1
:102EB000CF93DF938091B301807F09F04DC0809163
:102EC000B201882309F448C0E09190025091570262
:102ED000C091AE01D091AD016091AF017091B00190
:102EE00047E05E17C9F18E2F90E0E49FF0011124B6
:102EF000E85AFD4F2481222391F1489FF001499F18
:102F0000F00D1124DF01A85ABD4F11962C91119795
:102F10002C1325C02C912D1322C015962C9115979A
:102F200021111DC012962D913C91261B370B283C78
:102F30003105A8F48091B3018F7080618093B30153
:102F4000E25AFD4F80818F70806180838DEA91E02D
:102F50000E9486120E948908DF91CF910895FC019A
:102F60003196E770BECFA4E1B0E0E9EBF7E10C9455
:102F70007D228C0186E0F801DE011F9601900D9202
:102F80008A95E1F7F8018481E5809DEAA92E91E018
:102F9000B92E9091B101911128C0882319F1EE202A
:102FA000F1F0C8010E94490CF82E8823C1F087E097
:102FB000F801D50101900D928A95E1F78091B10158
:102FC000813031F48091AD019091AE010E943C0CB2
:102FD0000E9458178F2D6496ECE00C949922C8013A
:102FE0000E948612FF24F394F5CFD080C1808280A6
:102FF0009380F090B2012091AF013091B001A40113
:10300000421B530BFF2009F4D9C0483C510508F07E
:1030100092C08823F9F29091AE018091B301282FDC
:10302000207F09F056C0C91214C09091AD01D91289
:1030300010C0E11048C08F7080618093B3018DEAA9
:1030400091E00E9486128091B301F8018683F12CF1
:10305000C1CFE11038C06C2D8D2D0E9465036C2D01
:103060008D2D0E946503E82E8111F1CFDF86C88A7D
:103070008F8598890E943C0C292F22952F7024302F
:1030800058F49F70223088F0992399F0F8019681C6
:10309000907F79F4FE2C9ECF2A5F2F70223068F04B
:1030A000C8010E948612EF2CF5CF992311F08823D6
:1030B00089F3805E883070F3F3CF803F58F3815FEF
:1030C000833070F7E7CF8091B30181608093B301C3
:1030D000BECFC91207C09091AD01D91203C0EE2036
:1030E00009F48DC0C8010E94490C882309F477CFE8
:1030F000EE2009F474CF8091B301803288F02091E2
:10310000AD013091AE01398728879B868A869091E0
:10311000B1019C871D868E87CE0108960E9486127B
:1031200087E0F801ADEAB1E001900D928A95E1F7F0
:103130000E94581757CF9091B301292F207F51F447
:103140008DEA91E00E94861287E0F50111928A953E
:10315000E9F77DCF882309F43DCF8091AE018C1132
:1031600010C08091AD01D8120CC0E1100AC0968346
:10317000C8010E94861287E0F50111928A95E9F74D
:1031800029CFC8010E94490C882309F428CFEE20DA
:1031900009F425CF8091B301803210F22091AD0166
:1031A0003091AE013A8329839C828B829091B10148
:1031B0009D831E828F83CE010196B0CF483C51057E
:1031C000D0F6882309F40ECFFE2CEE2009F407CFA9
:1031D0008091AE018C1120C08091AD01D8121CC02D
:1031E0008091B30180FD0FC0982F907F61F086839E
:1031F000903F31F0982F907F905F8F70892B86835E
:10320000C8010E94861287E0F801ADEAB1E00190A2
:103210000D928A95E1F7DECEC8010E94490C81111A
:103220007FCF8091B30181608093B301C8010E9478
:103230008612D0CEABE1B0E0E0E2F9E10C94852259
:103240004E8B5F8B688F798F8A8F9B8F092F91119F
:103250001092D8011D8A86E0FE017696DE011F9647
:1032600001900D928A95E1F71A8D8091270282FFD5
:103270001CC00E94F0042091B5013091B601821B60
:10328000930B8838934120F08091B70182FF7FC073
:103290000E94F0042091DA013091DB01821B930B34
:1032A0008838934110F00E94F207112349F021E081
:1032B0004F85588969897A89812F902F0E946C0CDB
:1032C0001B8B0C8B87E0FE013F96DE011896019068
:1032D0000D928A95E1F7CE0108960E94B3178111ED
:1032E0000CC087E0FE013896DE01119601900D9228
:1032F0008A95E1F78C8581110BC017E080919002CF
:1033000090915702891331C06B96E4E00C94A1228E
:103310002091570230E0C9010196877099274091AA
:1033200090024817190699F097E0929FD001939F59
:10333000B00D1124A85ABD4FFE01319601900D9297
:103340009A95E1F7809357020E948908D6CF0E9490
:10335000270D109257021092900287E0EDEAF1E0FB
:10336000DF011D928A95E9F7C8CF819FC001112422
:10337000885A9D4F0E94B317882331F280919002A2
:1033800090E001968770992780939002B7CF82E0F2
:103390000E9435097DCFA6E0B0E0E1EDF9E10C94A3
:1033A00085228C019093180280931702011580E208
:1033B0001807C0F4802F0E945B10C8010E94590AB0
:1033C0009801205E31092830310518F001151105EA
:1033D00031F40E944A102696E4E00C94A1220E9447
:1033E0003510F9CF80EF89838A830E94F0048160D1
:1033F000682F9C838B8349815A817C8181E090E096
:103400000E941A19E8CFA6E0B0E0E9E0FAE10C94D6
:1034100085228C019093180280931702011580E297
:103420001807C0F4C8010E94590A9801205E3109AA
:103430002830310518F00115110549F40E9451108A
:10344000802F0E94B5102696E4E00C94A1220E94E1
:103450004010F6CF80EF89838A830E94F004816058
:10346000682F9C838B8349815A817C8181E091E024
:103470000E941A19E8CFA6E0B0E0E1E4FAE10C946A
:1034800085220E94F0048C018091DD019091DE0183
:103490008017910781F019821A820E94F004682F28
:1034A00049815A81792F80E090E00E941A19109387
:1034B000DE010093DD012696E4E00C94A122AAE04F
:1034C000B0E0E5E6FAE10C947E228E010F5F1F4F1B
:1034D0008AE0F80111928A95E9F78AE4C82E81E022
:1034E000D82EF12CE12CAA24A394B12CF6018191C1
:1034F0006F018F3F09F443C0F894E82FE295EF7015
:10350000F0E021A18F70A50102C0440F551F8A95DC
:10351000E2F7CA01922F982B91A392A1809589235B
:1035200082A3789400C0E4E5F1E0912C31E0219190
:103530002F3F09F465C0A22FA295AF70B0E090961E
:103540008C9190E02F7002C0959587952A95E2F7AF
:1035500080FD56C0832F982A330F51E0EC35F507D4
:1035600031F7F601319780818F3F11F00E94CC0531
:1035700080EA8A95F1F7F801EE0DFF1D9082EFEFDA
:10358000EE1AFE0AFAE0EF16F10409F0AFCF4AE0B6
:1035900050E0B80182EE91E00E94CB22892B91F19C
:1035A0008AE0F801A2EEB1E001900D928A95E1F770
:1035B00081E08093E1010E94F0049093E001809308
:1035C000DF018091DF019091E0010E94E104059705
:1035D000E8F04AE050E062EE71E08EEF91E00E9488
:1035E000CB22892BC1F08AE0E2EEF1E0AEEFB1E050
:1035F00001900D928A95E1F781E01092E10107C0F8
:1036000080E0A9CF8091E1018111DBCF80E02A9693
:10361000EBE00C949A2280E0F0CF1F920F920FB64D
:103620000F9211242F933F934F935F936F937F9348
:103630008F939F93AF93BF93CF93DF93EF93FF93BA
:10364000D091E900DF708091EC00C82FC17080FD3F
:10365000C0E81092E9008091F000877F8093F0002D
:1036600078940E94560D1092E9008091F0008860D5
:103670008093F000CD2BCF70C093E900FF91EF91C4
:10368000DF91CF91BF91AF919F918F917F916F917A
:103690005F914F913F912F910F900FBE0F901F9010
:1036A00018951F920F920FB60F9211242F933F93EC
:1036B0004F935F936F937F938F939F93AF93BF933A
:1036C000EF93FF938091E10082FF09C08091E200B7
:1036D00082FF05C08091E1008B7F8093E1008091A3
:1036E000DA0080FF24C08091D80080FF20C0809144
:1036F000DA008E7F8093DA008091D90080FF9DC030
:1037000080E189BD82E189BD09B400FEFDCF81E081
:1037100080934D0280912802811109C00E94840388
:103720000E9425048091E20084608093E2008091F1
:10373000E10080FF17C08091E20080FF13C08091FC
:10374000E2008E7F8093E2008091E20080618093AE
:10375000E2008091D80080628093D80019BC85E097
:1037600080934D028091E10084FF2BC08091E200A4
:1037700084FF27C080E189BD82E189BD89B5982F8A
:10378000917080FFFBCF8091D8008F7D8093D8000F
:103790008091E1008F7E8093E1008091E2008F7E36
:1037A0008093E2008091E20081608093E20080914A
:1037B0004E02882309F447C084E080934D02809133
:1037C0004D028091E10083FF27C08091E20083FFDA
:1037D00023C08091E100877F8093E10082E08093A5
:1037E0004D0210924E028091E1008E7F8093E100A5
:1037F0008091E2008E7F8093E2008091E200806100
:103800008093E20042E060E080E00E94F303809158
:10381000F00088608093F000FF91EF91BF91AF912D
:103820009F918F917F916F915F914F913F912F91D8
:103830000F900FBE0F901F90189519BC10924D025B
:103840001092280274CF8091E30087FD93E090935B
:103850004D02B5CF78941F921FB61F9211248F93FB
:103860009F93AF93BF938091220290912302A091E6
:103870002402B09125020196A11DB11D8093220260
:1038800090932302A0932402B0932502BF91AF919D
:103890009F918F911F901FBE1F9018951F921FB66A
:1038A0001F9211248F939F93AF93BF938091210216
:1038B000811113C08091220290912302A0912402D1
:1038C000B09125024196A11DB11D809322029093D3
:1038D0002302A0932402B0932502BF91AF919F9140
:1038E0008F911F901FBE1F901895CDB7DEB7AF9771
:1038F0000FB6F894DEBF0FBECDBF85B7806885BF19
:1039000085B7806885BF84B7877F84BF0FB6F8947A
:10391000A89580916000886180936000109260009B
:103920000FBE80E890E00FB6F8948093610090930A
:1039300061000FBE8AEC95E090936D0180936C015D
:103940000E9484030E9425048091E2008460809399
:10395000E200789480914D028823A1F01091E90053
:103960001F709091EC00892F817090FD80E8182BDA
:103970001092E9008091E80083FD0E94560D1F70AF
:103980001093E90082E084BD93E095BD9AEF97BD66
:1039900080936E000E94910C811102C00E94B10BB5
:1039A0000AE411E0B4E5EB2EB1E0FB2ED8018D91D5
:1039B0008D018F3F11F00E94CC05E016F106B1F7A2
:1039C00004E511E0F80181918F018F3F11F00E9411
:1039D000CC05F1E00C351F07A9F78AE0EEEFF1E026
:1039E000DF01282F1D922A95E9F7E2EEF1E0DF01D1
:1039F0001D928A95E9F790E080E00E94E722863EDA
:103A00009E4F21F40E94910C811167C066EE7EEFFB
:103A100090E080E00E941B2360E082E090E00E9442
:103A2000FD2260E083E090E00E94FD221092EC0114
:103A300060E074E184E090E00E941B2360E086E097
:103A400090E00E94FD226FEF87E090E00E94FD224F
:103A500040E050E0BA0188E090E00E940F2360E06F
:103A600084E290E00E94FD2260E087E190E00E9405
:103A7000FD2260E08CE090E00E94FD2260E08DE09D
:103A800090E00E94FD2219821A821B821C821D82F4
:103A90001E821F82188648E050E068E170E0CE0187
:103AA00001960E94ED2240E050E0BA0180E290E0F1
:103AB0000E940F2380E00E94980B0E94B10B40E00F
:103AC00050E0BA018FE090E00E940F2340E050E008
:103AD000BA0183E190E00E940F2382E090E00E940F
:103AE000DF228093EE0184E090E00E94E722909331
:103AF0002702809326020E945F1AEFEFF6E721E08B
:103B0000E150F0402040E1F700C000000E945F1A41
:103B10008091FE0180FF08C06FEF7FEF90E080E0B2
:103B20000E941B230E94F70A83E090E00E94DF229C
:103B30000E946F091091ED010E944605812F0E949D
:103B400055033E9A46983F9A4798869A8E980E94C7
:103B500046058091ED010E94550380E091E090932D
:103B60001E0280931D028EEF91E03AE0380F3FA7CE
:103B70008E010F5F1F4F80914D02E0E4DE2EF0E1D9
:103B8000EF2EA2E1FA2E853009F48FC00E945F1A51
:103B90006FEEA62E61E0B62E7EEFE72E71E0F72ED7
:103BA000D701F50191918D9121E0E93FF20709F4E8
:103BB00088C09817B9F35EEFC52E51E0D52E912C31
:103BC00044244394D6018D906D01F50151905F011D
:103BD000581419F15824712C66246394852D86217C
:103BE000A1F079A69AA60E94F0049CA78BA74DA6E7
:103BF00091E0882D862109F490E09EA749A55AA559
:103C00006BA57CA58DA50E941A197394660CF8E02B
:103C10007F12E4CFF5013197808293942AE09212CB
:103C2000D1CF8FB7F8944091220250912302609136
:103C30002402709125028FBF48C080914D028430CC
:103C400031F180E00E944A0A1092210288E190E05E
:103C50000FB6F894A895809360000FBED0926000D4
:103C600083B7817F846083BF83B7816083BF78948B
:103C7000889583B78E7F83BF0FB6F894A8958091FF
:103C80006000886180936000109260000FBE809198
:103C90004C02882351F00E945F1AEEEFF1E081910F
:103CA0008111D7C39FA59E13FACF80914D02853015
:103CB00009F4C3CF0E94270D0E9446050E944A0ABC
:103CC00065CF981378CF0E943B1A86E0E1E1F2E0DD
:103CD000D80101900D928A95E1F790901202B09070
:103CE0001302D0901402A0901502C09016021092F8
:103CF00013021092140210921502109216028D2DCA
:103D00008B2909F445C080910F02909110020E9406
:103D1000E1049C0190910A02992309F4C2C3253160
:103D20003105B0F19F3F19F09F5F90930A02BB20CD
:103D300059F00E949C059FEF1B140CF491E0899FA1
:103D4000802D112480931302DD2059F00E949C05E0
:103D500091E01D140CF09FEF899F802D112480931A
:103D6000140280911302882399F080901402882015
:103D700079F00E94BC05882309F4CAC0809313021D
:103D8000882D0E94BC05882309F4C4C080931402C6
:103D90008A2D8C2909F445C080910D0290910E0264
:103DA0000E94E1049C0190910B02992309F474C3D1
:103DB00021353105B0F19F3F19F09F5F90930B02C1
:103DC000AA2059F00E947A059FEF1A140CF491E092
:103DD000899F802D112480931502CC2059F00E94D8
:103DE0007A0591E01C140CF09FEF899F802D11241F
:103DF0008093160280911502882399F0A0901602F4
:103E0000AA2079F00E94BC05882309F485C080931C
:103E100015028A2D0E94BC05882309F47FC0809377
:103E2000160280911202891117C080911302882313
:103E300011F08B1111C020911402222311F02D11C9
:103E40000BC090911602992311F09C1105C030917E
:103E50001502332309F413C30E94530586E0F801C9
:103E6000A1E1B2E001900D928A95E1F70E9446052A
:103E70009091F901891779F08093F9019FB7F8942F
:103E800040912202509123026091240270912502F8
:103E90009FBF0E944A0A80914D02843009F06BCE88
:103EA00083E08093E9008091E80082FF64CE8091F6
:103EB000E80090E085FF09C00E94A30340E2A42E21
:103EC000B12C68018823A9F191E08091E8008B77FB
:103ED0008093E800992309F44ECEC0900802D09058
:103EE00009028981C114D10491F18E3F09F0BFC04C
:103EF0008A81833020F08550833008F0B8C0EA8191
:103F0000EE3008F0B4C0F0E0EE58FC4D0C946A229C
:103F100081E034CF81E03ACF81E079CF81E07FCF7B
:103F20008091F100D6018D936D01B1E0AB1AB1081B
:103F300059F28091E80085FDF3CF8091E8008B77FE
:103F40008093E8000E94A303882399F3BDCF8C30AF
:103F500009F4CEC068F5843009F4B1C058F4823059
:103F600009F46BC008F09CC0813009F462C08FEF87
:103F700089837DC0863009F4B8C008F4ABC08B30AB
:103F8000B1F78091190290911A02892B09F46FC040
:103F900040E250E0B80182E00E948A0A3FEF81EEE1
:103FA00094E0315080409040E1F700C00000BACD6D
:103FB000803109F4CEC088F58E3009F4A0C008F431
:103FC0009AC08091190290911A02892B09F44FC06E
:103FD000EC80F12C3DE1E316F10408F048C0CA8002
:103FE000DB80DC24CD24DC245801E00EF11EC60168
:103FF00087559D4FAE14BF04D1F1A7E5CA16A1E0C5
:10400000DA0620F4F50164810E94FD22FFEFAF1A69
:10401000BF0A2FEFC21AD20AEACF823109F49EC03A
:1040200008F49AC0833109F4C2C08E3F09F09FCFD3
:1040300066CF1A8289E08B831AC08A81823009F4A4
:1040400023C28330D9F0813009F091CF2FB7F89493
:1040500060912202709123028091240290912502A6
:104060002FBF0E9470226B837C838D839E8340E2EE
:1040700050E0B80182E00E948A0A7DCD8091190249
:1040800090911A02892B99F3FE013396D7018D91F5
:104090007D018193B8E0EB16B2E0FB06B9F7E7CFFC
:1040A0008A81823009F063CF6B817C818D819E8112
:1040B0000E94702288E290E00E94FD22D8CF4C81BD
:1040C0006B818A810E94C10B9827892798279E833C
:1040D0008D83CDCF2D813E813227232732274C81FE
:1040E0006B818A810E942B0BC2CF0E94510BBFCFE4
:1040F00080E18A83BCCF81E08A8387E59CCFEC8016
:10410000F12CEDE1EE16F10408F0B1CFCA80DB80AE
:10411000DC24CD24DC245801E00EF11EC6018755B5
:104120009D4FEA14FB0409F4A2CFF7E5CF16F1E0A6
:10413000DF0660F40E94DF22D50114968C93FFEF16
:10414000CF1ADF0A2FEFA21AB20AE8CFF5011482C4
:10415000F6CF0E941B0B8BCF84E0CBCFEC80F12CF1
:104160003DE1E316F10408F082CFCA80DB80DC2455
:10417000CD24DC245801E00EF11EC6018996AE1450
:10418000BF0409F474CFA0E8CA16A2E0DA0658F416
:104190000E94DF22F5018483BFEFCB1ADB0AEFEF29
:1041A000AE1ABE0AEACFD50114961C92F5CFCC8088
:1041B000D12CFDE1CF16D10408F059CFEA80FB8065
:1041C000FE24EF24FE2420E8E21622E0F20608F0A6
:1041D0004ECF80E892E08E199F098C159D0508F45A
:1041E00046CF370139E2630E711C8091190290911C
:1041F0001A0226014E0C5F1C892BA1F5570181E0A4
:10420000A822BB24E0FE0DC0C70188960E94DF22D1
:104210009D8189279827892781159C4711F48FEF65
:104220008D83460140FE17C0B1E08B1A910835E03E
:10423000232E312C2C0E3D1E280C391CC3018C0D55
:104240009D1D0E94DF22F101908181159C4719F488
:104250008FEFD1018C93F801EA0DFB1D2FEFA8140D
:10426000B90410F068011BC09481858181159C47B9
:1042700011F42483258332E0A30EB11C3296EFCFD4
:10428000A0E8EA16A2E0FA0620F4F60164810E9492
:10429000FD22FFEFCF1ADF0A2FEFE21AF20AC70161
:1042A0008996E414F50461F7E2CE88E0E9E0F1E0F4
:1042B000DE01919601900D928A95E1F780E2D80196
:1042C0001D928A95E9F786E0898388E0FE01B19620
:1042D000DE01159601900D928A95E1F7C8CE84E132
:1042E000898381E08A831B821C82C1CE8C81682FE6
:1042F00070E0762F66278B81860F972F911D092EF0
:10430000000CAA0BBB0B25E0880F991FAA1FBB1F2F
:104310002A95D1F7AC01BD01405E5F4F6F4F7F4FD3
:10432000481759076A077B0708F4A1CE8431E1E0FA
:104330009E07A105B10508F09ACE4531F1E05F076F
:104340006105710520F044E151E060E070E0481B38
:10435000590BBC0168537E4FC8010E94C22287CE10
:104360004AE150E06FEF70E0CE0107960E94D8223C
:10437000809119028983CA821B821C8281E08D830D
:104380008E8375CE81E090E09093090280930802BD
:1043900082E390E09093FD018093FC010E94F00481
:1043A0009093FB018093FA0162CECD2861F1F090E9
:1043B000FE01E090FF018091FA019091FB010E94C3
:1043C000E1048536910540F1E1FE26C0F0FE24C0EF
:1043D0000E94F0049093FB018093FA018091FC010C
:1043E0009091FD0101979093FD018093FC01892B31
:1043F00051F4109209021092080281E090E090932B
:104400001A0280931902809119028983809108020F
:104410008A838091FC010FCE82E390E09093FD01AE
:104420008093FC01F0CF10921A02109219021FCE55
:1044300040E250E06FEF70E0C8010E94D82217CE32
:104440008B81811114CE80E2D8011D928A95E9F703
:104450000ECEE9BCF9BC09B400FEFDCF8091D800B6
:104460008F7D8093D8008091E00082608093E0008F
:104470008091E00081FDFCCF0E94270D16CC822B9D
:10448000892B09F4EBCCE8CC88E290E00E94DF2293
:104490001B821C821D8274CF2B30310508F08DCC1D
:1044A000C0CC2B30310508F03FCC72CC97FB072EE7
:1044B00016F4009407D077FD09D00E94AE2207FCC5
:1044C00005D03EF4909581959F4F08957095619524
:1044D0007F4F0895EE0FFF1F0590F491E02D099492
:1044E00069279627692778278727782708952F92A5
:1044F0003F924F925F926F927F928F929F92AF9274
:10450000BF92CF92DF92EF92FF920F931F93CF93C0
:10451000DF93CDB7DEB7CA1BDB0B0FB6F894DEBF57
:104520000FBECDBF09942A88398848885F846E847D
:104530007D848C849B84AA84B984C884DF80EE80C7
:10454000FD800C811B81AA81B981CE0FD11D0FB6D0
:10455000F894DEBF0FBECDBFED010895AA1BBB1BB3
:1045600051E107C0AA1FBB1FA617B70710F0A61B73
:10457000B70B881F991F5A95A9F780959095BC0194
:10458000CD010895FB01DC0102C005900D92415060
:104590005040D8F70895FB01DC0104C08D910190D3
:1045A000801921F441505040C8F7881B990B089599
:1045B000DC0101C06D9341505040E0F70895F99936
:1045C000FECF92BD81BDF89A992780B50895A8E1E4
:1045D000B0E042E050E00C942323DC01A40FB51FAF
:1045E0004150504048F0CB01840F951F2E910E94FE
:1045F000FE2241505040D0F70895262FF999FECF62
:1046000092BD81BDF89A019700B4021639F01FBA25
:1046100020BD0FB6F894FA9AF99A0FBE0895039642
:10462000272F0E94FE220E94FD22252F0E94FE229B
:10463000242F0C94FE220196272F0E94FE220C9418
:10464000FD22DC01CB01FC01F999FECF06C0F2BDD1
:10465000E1BDF89A319600B40D9241505040B8F740
:104660000895F894FFCF370E5F0E0D105F0E0D10FA
:10467000920EB30E0D10BC0FC90F77137B135A1394
:1046800073137F1383138713F514F5142D152D154C
:10469000ED150716551555150C1677168616861640
:1046A000C4133914CC1396139A13D0139E13D41336
:1046B000E013AA133214AE13E413B213E813101468
:1046C000B613EC131714BC13F213FA13A213D81376
:1046D000A613DC13C013F613061420143014901321
:1046E000C813401455216F21762137203720B0217F
:1046F000C221D5211322182237203720372020222B
:10470000DE04D30ACC0AC50A01AC0889A825123FE9
:1047100096818283E200E900EA00B500B600B700A6
:10472000CD008301CC008A01920194012102230271
:1047300024022502260227022A02B300B4006F00D9
:1047400070009F01CB019F02A0023231F0F1F4957D
:104750009392903336353497969491304422B684B0
:0C476000016201AC00CE04E70407050074
:00000001FF
